:020000040800F2
:1000000000280020F51F0008151C00081B1C000814
:10001000211C0008271C00082D1C000800000000FF
:10002000000000000000000000000000331C000879
:100030003F1C0008000000004B1C0008571C000873
:100040003D2000083D2000083D2000083D2000081C
:100050003D2000083D2000083D2000083D2000080C
:100060003D2000083D2000083D2000083D200008FC
:100070003D2000083D2000083D2000083D200008EC
:100080003D2000083D2000083D2000083D200008DC
:100090003D2000083D2000083D2000083D200008CC
:1000A0003D2000083D2000083D2000083D200008BC
:1000B0003D2000083D200008000000003D20000811
:1000C0003D20000800000000000000003D20000866
:1000D00000000000651C0008D91C0008000000009A
:1000E0003D2000083D2000083D20000800000000E1
:1000F0000000000000000000000000000000000000
:0C01000000000000000000005FF808F1A3
:10010C0010B5054C237833B9044B13B10448AFF345
:10011C0000800123237010BD74000020000000003B
:10012C00CC58000808B5034B1BB103490348AFF387
:10013C00008008BD0000000078000020CC580008AA
:10014C00034613F8012B002AFBD1181A013870470B
:10015C0080B483B000AF78607B68002B13D00DE0C7
:10016C007B681B780A2B03D07B681B780D2B02D184
:10017C007B6820221A707B6801337B607B681B785C
:10018C00002BEDD100E000BF0C37BD4680BC7047A2
:10019C0080B5B0B002AF7860002387F8B730002389
:1001AC00FB6607F170033C220021184604F08AF824
:1001BC0007F16C007B68D44A402104F08BF807F1FE
:1001CC006C031846FFF7BCFF03469AB207F16C01AB
:1001DC004FF47A73CD4803F0EDF9C82004F020F801
:1001EC0007F16C0340220021184604F06BF8002341
:1001FC0087F8B63059E101F06BFE0346002B00F096
:10020C004B810023A7F8B43014E001F07BFE0346C9
:10021C001946B7F8B4305A1CA7F8B420CAB2B83390
:10022C003B4403F84C2CB7F8B4303F2B08D80120D2
:10023C0003F0F6FF01F04CFE0346002BE5D100E085
:10024C0000BF07F16C031846FFF782FF0023C7F8C5
:10025C00B03007F16C03AE49184604F07CF8C7F8CF
:10026C00B000D7F8B030002B31D007F16C0330213F
:10027C00184604F063F80346002B40F0E880D7F8EA
:10028C00B000FFF75DFF03469AB24FF47A73D7F8CC
:10029C00B010A04803F08EF94FF47A731E229E49D9
:1002AC009C4803F087F997F8B730013387F8B730DB
:1002BC004FF40051994802F02BFA642003F0B0FF80
:1002CC0097F8B730312BEED901F0CBFFEBE707F104
:1002DC006C039349184604F03EF8C7F8B000D7F801
:1002EC00B030002B31D007F16C038E49184604F066
:1002FC0032F80346002B40F0AA80D7F8B000FFF785
:10030C001FFF03469AB24FF47A73D7F8B0108148A6
:10031C0003F050F94FF47A73202283497D4803F09F
:10032C0049F997F8B730013387F8B7304FF40051DB
:10033C007A4802F0EDF9642003F072FF97F8B730B9
:10034C00312BEED901F08DFFEBE707F16C03774908
:10035C00184604F000F8C7F8B000D7F8B030002BFE
:10036C002CD007F16C037249184604F00BF8C7F84F
:10037C00B000D7F8B00003F077FF034687F8AF3032
:10038C0097F8AF305B00DBB2C3F1730387F8AE3084
:10039C0097F8AE30674A0721674803F09BFF97F840
:1003AC00AF301A465200134487F8AD3097F8AD3091
:1003BC00624A0421624803F08DFF48E007F16C03A8
:1003CC006049184603F0C7FFC7F8B000D7F8B03043
:1003DC00002B15D007F16C035B49184603F0D2FFD4
:1003EC00C7F8B0005949002003F0CCFFC7F8B000A3
:1003FC00D7F8B030564A0E21564803F06BFF26E072
:10040C0007F16C035449184603F0A5FFC7F8B00078
:10041C00D7F8B030002B1AD007F16C034A491846B4
:10042C0003F0B0FFC7F8B0004C49002003F0AAFF5E
:10043C00C7F8B0004949002003F0A4FFC7F8B0008A
:10044C00D7F8B030424A0421454803F043FF00235B
:10045C00C7F8B0300023FB6007F110035C220021C9
:10046C00184603F02FFF07F10C0007F16C03009303
:10047C007B683C4A602103F02DFF07F10C03184602
:10048C00FFF75EFE03469AB207F10C014FF47A7344
:10049C00204803F08FF833E04FF4FA7003F0C0FEFD
:1004AC0097F8B630013387F8B63097F8B6301D2B75
:1004BC007FF6A1AE4FF47A730A222B49154803F04C
:1004CC0079F87868FFF73CFE03469AB24FF47A73DA
:1004DC007968104803F06EF897F8B730013387F855
:1004EC00B7304FF400510D4802F012F9642003F0BC
:1004FC0097FE97F8B730312BEED901F0B2FEEBE74F
:10050C00B837BD4680BD00BFE4580008E0000020AD
:10051C00EC58000828010020F45800080010014095
:10052C00145900081C5900082059000844590008A7
:10053C004C59000854590008740100205C590008FB
:10054C009001002060590008685900086C59000897
:10055C00705900087C010020745900087C5900086F
:10056C008C010020805900088C59000880B584B09B
:10057C0000AF0A4A3B1D07CA83E807003B1D18461B
:10058C00FFF7DEFD03469AB2391D4FF47A73044827
:10059C0003F010F800BF1037BD4680BD9859000815
:1005AC00E000002080B582B000AF0B4A3B4692E8D9
:1005BC0003001860043319803B461846FFF7C0FD52
:1005CC0003469AB239464FF47A73044802F0F2FFAC
:1005DC0000BF0837BD4680BDA4590008E0000020CC
:1005EC00B0B586B000AF0D4B3C1D1D460FCD0FC4F2
:1005FC002B681A46228002341B0C23703B1D1846B4
:10060C00FFF79EFD03469AB2391D4FF47A730448E6
:10061C0002F0D0FF00BF1837BD46B0BDAC59000882
:10062C00E000002080B584B000AF0C4A3B1D07CA27
:10063C0003C31A800233120C1A703B1D1846FFF7C5
:10064C007FFD03469AB2391D4FF47A73044802F0C9
:10065C00B1FF00BF1037BD4680BD00BFC8590008B0
:10066C00E000002080B596B000AF5C4B01221A7000
:10067C00ACE05A4B1B7807F14400594A0B2103F0AC
:10068C0029FE07F144031846FFF75AFD03469AB2B8
:10069C0007F144014FF47A73524802F08BFF07F1D3
:1006AC0044031846FFF74CFD03469AB207F1440188
:1006BC004FF47A734C4802F07DFFC82003F0B0FD74
:1006CC0000237B6007F108033C220021184603F04D
:1006DC00F9FD002387F857306EE001F0F9FB034673
:1006EC00002B64D00023A7F8543014E001F00AFC6E
:1006FC0003461946B7F854305A1CA7F85420CAB20E
:10070C0058333B4403F8542CB7F854303F2B08D8DB
:10071C00012003F085FD01F0DBFB0346002BE5D146
:10072C0000E000BF3B1D1846FFF712FD00233B65A0
:10073C003B1D2E49184603F00EFE38653B6D002B11
:10074C0032D03B1D2A49184603F01CFE3865294956
:10075C00002003F017FE3865386D03F085FD034665
:10076C001A46254B1A601D4B1B781946224B1B68E9
:10077C00224A42F82130204B1B6807F14400204AE2
:10078C000B2103F0A7FD07F144031846FFF7D8FC33
:10079C0003469AB207F144014FF47A73124802F0FF
:1007AC0009FF00233B6502E000233B6513E097F84B
:1007BC005730013387F8573097F857301D2B8CD9A9
:1007CC00064B1B780133DAB2044B1A70034B1B78BF
:1007DC00092B7FF64EAF5837BD4680BD94000020E4
:1007EC00D4590008E000002028010020E05900083E
:1007FC00E8590008F45900089000002094010020EA
:10080C00F859000880B588B000AF0123FB6153E0B4
:10081C000123BB6147E02C4ABB6952F82330381DD9
:10082C002A4A122103F056FD3B1D1846FFF788FC9F
:10083C0003469AB2391D4FF47A73254802F0BAFE7A
:10084C003B1D1846FFF77CFC03469AB2391D4FF44A
:10085C007A73204802F0AEFE012001F03DF81A4AEE
:10086C00BB6952F82330381D1B4A0F2103F032FDAF
:10087C003B1D02220021184601F088F844F6206046
:10088C0003F0CEFC002001F027F8022200211348CF
:10089C0001F07CF8FFF786FE4FF4FA7003F0C0FC11
:1008AC00BB690133BB610E4B1B781A46BB69934283
:1008BC00B1DBFB690133FB61FB69032BA8DD00BFD6
:1008CC0000BF2037BD4680BD94010020005A0008AF
:1008DC00E0000020280100200C5A0008185A0008DB
:1008EC009400002080B500AF4FF400412D4800F07B
:1008FC00D5FE4FF480412B4800F0E4FE4FF400513C
:10090C00284800F0F3FE4FF48051264800F002FF17
:10091C004FF40061234800F011FF00F0A7FF012203
:10092C004FF40051204801F0DBFE022212211F4837
:10093C0001F02CF8032212211D4801F027F80522A2
:10094C0000211C4801F022F84FF4FA6003F068FC17
:10095C0001F03CF800221221144801F017F8012292
:10096C001221134801F012F8012000F0B5FF022209
:10097C000021114801F00AF84FF4FA7003F050FC12
:10098C00022200210D4801F001F801224FF4807180
:10099C000B4801F0A5FE47F2305003F041FC00BFBC
:1009AC0080BD00BF000C014000100140785A0008C7
:1009BC00845A0008905A0008A05A0008B05A00083F
:1009CC000008014080B500AF00F0B4F8022200210D
:1009DC00274800F0DBFF4FF4FA7003F021FC0222F1
:1009EC000021244800F0D2FF4FF4FA7003F018FCF9
:1009FC002148FFF7CDFB02220021204800F0C6FF62
:100A0C004FF4FA7003F00CFC1D48FFF7C1FB0222F7
:100A1C0000211C4800F0BAFF4FF4FA7003F000FC00
:100A2C001948FFF7B5FB1948FFF7B2FB1848FFF759
:100A3C00AFFB1848FFF7ACFB1748FFF7A9FB1748AB
:100A4C00FFF7A6FB1648FFF7A3FB1648FFF7A0FB22
:100A5C001548FFF79DFB1548FFF79AFB1448FFF765
:100A6C0097FB1448FFF794FBFFF7FCFD00BF80BD1C
:100A7C00C05A0008D05A0008E05A0008E85A00088A
:100A8C00F85A0008045B0008145B0008205B00089F
:100A9C00285B0008305B00083C5B0008485B0008E2
:100AAC00585B0008685B00087C5B0008845B0008EE
:100ABC00885B0008905B000880B485B000AF78605C
:100ACC000023FB607B68002B2FD00023FB727B681C
:100ADC00FB6022E0FB7A012B0BD87B681B780A2B7E
:100AEC0003D07B681B780D2B03D1FB7A0133FB728F
:100AFC0010E07B681B780A2B03D07B681B780D2BCE
:100B0C0002D17B6820221A70FB685A1CFA607A6842
:100B1C0012781A707B6801337B607B681B78002B22
:100B2C00D8D1FB6800221A7000E000BF1437BD4614
:100B3C0080BC704780B598B000AF002387F85F3059
:100B4C00C6E00023BB6597F85F30002B03D14FF450
:100B5C001663BB652EE097F85F30012B03D14FF481
:100B6C009653BB6526E097F85F30022B03D14FF408
:100B7C001653BB651EE097F85F30032B03D14FF47F
:100B8C009643BB6516E097F85F30042B03D14FF406
:100B9C001643BB650EE097F85F30052B03D14FF47D
:100BAC006143BB6506E097F85F30062B02D14FF42A
:100BBC00E133BB654B4B4C4A1A604A4ABB6D5360E0
:100BCC00484B00229A60474B0022DA60454B0022CA
:100BDC001A61444B0C225A61424B00229A61414BE0
:100BEC000022DA613F4802F095FC0346002B01D04D
:100BFC0000F04EFD00237B6407F1480300221A60CD
:100C0C005A609A604FF47A7304223849354802F0DE
:100C1C00D1FC4FF4967003F003FB01F059F9034635
:100C2C00002B50D00023A7F8563014E001F06AF9DD
:100C3C0003461946B7F856305A1CA7F85620CAB2C4
:100C4C0060333B4403F81C2CB7F856300F2B08D8F4
:100C5C00012003F0E5FA01F03BF90346002BE5D146
:100C6C0000E000BF07F144032149184603F073FB71
:100C7C000346002B27D000237B6007F108033C229E
:100C8C000021184603F01EFB164B5B68381D194AF1
:100C9C00402103F01FFB3B1D1846FFF751FA03469A
:100CAC009AB2391D6423144802F084FC4FF47A7311
:100CBC000E2212490B4802F07DFCFA2003F0B0FA28
:100CCC0000F00CFC0AE097F85F30013387F85F30D6
:100CDC0097F85F30062B7FF634AF00BF00BF60374C
:100CEC00BD4680BDE0000020003801409C5B000840
:100CFC00A45B0008A85B000828010020D05B00085A
:100D0C0080B5AEB002AF03F029FA00F04FFB00F053
:100D1C0039FC00F091FB00F0E1FB00F009FCFFF75F
:100D2C00E1FDAB4B1B68DA68A94B1B6842F0200253
:100D3C00DA60A84B1B68DA68A64B1B6842F02002ED
:100D4C00DA60FFF73FFE00233B6607F164033C22A9
:100D5C000021184603F0B6FA00233B6207F1240386
:100D6C003C220021184603F0ADFA0023C7F8AC3042
:100D7C0039E0994AD7F8AC3052F82330002B2DD0FB
:100D8C00954AD7F8AC3052F8233007F12000009385
:100D9C00D7F8AC30914A0F2103F09CFA07F12003ED
:100DAC001846FFF7CDF903469AB207F120014FF42C
:100DBC007A73884802F0FEFB4FF47A73012288495B
:100DCC00844802F0F7FB07F12003022200211846A9
:100DDC0000F0DCFD4FF47A7003F022FAD7F8AC3057
:100DEC000133C7F8AC30D7F8AC30092BC1DD00F0BB
:100DFC00EDFD002000F070FD00224FF40051794809
:100E0C0001F06EFC784802F055F9784B1B78DBB298
:100E1C00012B16D101224FF40051724801F060FCF5
:100E2C00714802F093F9FFF7EDFC704B00221A7039
:100E3C006D4802F03FF900224FF40051694801F06F
:100E4C004FFC6B4B1B78DBB2012B40F08E80684B58
:100E5C0000221A7000F0BAFD01224FF400516148D3
:100E6C0001F03EFC6348FFF793F96348FFF790F9F4
:100E7C0000221221614800F089FD012212216048F4
:100E8C0000F084FD032200215E4800F07FFD042267
:100E9C0000215D4800F07AFD04223C215B4800F003
:100EAC0075FD052200215A4800F070FD05223C21F9
:100EBC00584800F06BFD584B1B78DBB2013BDAB2A3
:100ECC00554B1A70544B1B78DBB2002B47D1524B4D
:100EDC000A221A70012000F0FFFC022200214F4868
:100EEC0000F054FD4FF4FA7003F09AF94C48FFF7F8
:100EFC004FF9022200214B4800F048FD4FF4FA70E4
:100F0C0003F08EF94848FFF743F900F05FFD00202D
:100F1C0000F0E2FCFFF786FB00221221374800F0BC
:100F2C0035FD01221221364800F030FD032200214C
:100F3C00344800F02BFD04220021334800F026FD3C
:100F4C0004223C21314800F021FD052200213048CB
:100F5C0000F01CFD05223C212E4800F017FD00225C
:100F6C004FF400511F4801F0BBFB00F0B1FF0346EA
:100F7C00002B00F0A8810023A7F8AA30012387F8E2
:100F8C00A93007F1600340220021184603F09AF9BA
:100F9C00322003F045F914E000F0B4FF0346194683
:100FAC00B7F8AA305A1CA7F8AA20CAB2B0333B44EF
:100FBC0003F8502CB7F8AA303F2B37D8012003F098
:100FCC002FF900F085FF0346002BE5D12FE000BF81
:100FDC00E00000202801002094010020E05B0008C4
:100FEC00EC5B00080010014098000020700100200C
:100FFC0071010020F05B0008F85B0008005C000841
:10100C000C5C00087C010020185C0008900100209A
:10101C00285C00088C01002000000020385C0008CF
:10102C00485C0008505C0008605C000800BF07F1D9
:10103C0060031846FFF740FD07F16003C6491846E8
:10104C0003F089F90346002B40F0238107F160037C
:10105C00C249184603F07FF90346002B4CD007F128
:10106C006003BF49184603F076F90346002B3BD0CA
:10107C004FF47A730E22BB49BB4802F09BFA012055
:10108C0000F02AFC02220021B84800F07FFC00206E
:10109C0000F022FC07F16003B549184603F05BF938
:1010AC000346002B07D04FF47A730C22B149AE489B
:1010BC0002F080FAEDE007F16003AF49184603F047
:1010CC004AF90346002B02D0FFF78AFAE1E007F158
:1010DC006003AA49184603F03EF90346002B00F0C2
:1010EC00D880FFF743FAD4E04FF47A731222A44964
:1010FC009D4802F05FFACCE007F16003A149184665
:10110C0003F029F90346002B0BD00023C7F8A030BD
:10111C0007F160039C49184603F01DF9C7F8A000BD
:10112C00B7E007F160039949184603F014F9034638
:10113C00002B23D007F160033021184603F0FEF892
:10114C000346002B07D04FF47A730E229049864841
:10115C0002F030FA0FE007F160033121184603F07A
:10116C00EDF80346002B06D04FF47A730E22894912
:10117C007D4802F01FFAFFF715FA8AE007F16003C9
:10118C008549184603F0E7F80346002B00F08180F0
:10119C0007F160031846FEF7DBFF00233B603B1DA5
:1011AC0000221A605A609A60DA601A615A619A6178
:1011BC00002387F8A83050E097F8A830B0333B44B0
:1011CC0013F8503C222B43D197F8A830013387F801
:1011DC00A830002387F8A73035E097F8A830B03353
:1011EC003B4413F8503C2B2B08D197F8A830B03364
:1011FC003B44002203F8502C00BF32E097F8A83093
:10120C00B0333B4413F8503C2C2B06D197F8A83044
:10121C00B0333B44202203F8502C97F8A82097F8C1
:10122C00A730B0323A4412F8502CB0333B4403F898
:10123C00B02C97F8A830013387F8A83097F8A7306E
:10124C00013387F8A73097F8A730132BC5D908E0DE
:10125C0097F8A830013387F8A83097F8A8303F2BBF
:10126C00AAD93B4607F120004C4A402103F032F842
:10127C0007F120031846FEF763FF03469AB207F105
:10128C0020014FF47A73384802F094F9002387F860
:10129C00A93097F8A930002B15D007F1600307F19E
:1012AC0020003F4A402103F015F807F120031846AF
:1012BC00FEF746FF03469AB207F120014FF47A730A
:1012CC00294802F077F900F049FE0346002B3FF461
:1012DC009CAD0023A7F8A43007F160034022002145
:1012EC00184602F0EFFF14E000F052FE03461946D8
:1012FC00B7F8A4305A1CA7F8A420CAB2B0333B44A8
:10130C0003F8502CB7F8A4303F2B08D8012002F07A
:10131C0087FF00F023FE0346002BE5D100E000BF61
:10132C0007F160031846FFF7C7FB07F1600307F1ED
:10133C0020001C4A402102F0CDFF07F12003184683
:10134C00FEF7FEFE03469AB207F120014FF47A73C2
:10135C00154802F02FF958E56C5C0008745C000825
:10136C007C5C0008885C000828010020985C000860
:10137C00A85C0008B05C0008C05C0008C85C0008F1
:10138C00D05C0008E45C0008EC5C0008F45C00082D
:10139C00FC5C00080C5D00081C5D0008245D000866
:1013AC00345D0008385D0008E000002080B590B086
:1013BC0000AF07F1180328220021184602F082FF23
:1013CC003B1D00221A605A609A60DA601A61012390
:1013DC00BB614FF48033FB6100233B620123BB6292
:1013EC0002237B634FF48033BB634FF4E013FB6346
:1013FC0007F11803184601F0A5F90346002B01D09C
:10140C0000F046F90F237B600223BB600023FB60D6
:10141C004FF480633B6100237B613B1D0221184626
:10142C0001F012FC0346002B01D000F031F900BF93
:10143C004037BD4680BD000080B586B000AF07F1D7
:10144C00080300221A605A609A60DA603B46002258
:10145C001A605A601F4B204A1A601E4B4FF6FF72DF
:10146C005A601C4B00229A601A4B4FF6FF72DA60DE
:10147C00184B00221A61174B00225A61154B00229F
:10148C009A61144801F0C6FD0346002B01D000F010
:10149C00FFF84FF48053BB6007F1080319460D4861
:1014AC0001F082FE0346002B01D000F0F1F800237E
:1014BC003B6000237B603B461946064801F052FD19
:1014CC000346002B01D000F0E3F800BF1837BD46EF
:1014DC0080BD00BF98000020002C014080B500AFFB
:1014EC00114B124A1A60104B4FF461425A600E4B6A
:1014FC0000229A600C4B0022DA600B4B00221A611E
:10150C00094B0C225A61084B00229A61064B0022AF
:10151C00DA61054801F0FEFF0346002B01D000F014
:10152C00B7F800BF80BD00BFE000002000380140CC
:10153C0080B500AF114B124A1A60104B4FF4614248
:10154C005A600E4B00229A600C4B0022DA600B4B57
:10155C0000221A61094B0C225A61084B00229A6135
:10156C00064B0022DA61054801F0D4FF0346002B3C
:10157C0001D000F08DF800BF80BD00BF2801002015
:10158C000044004080B588B000AF07F11003002282
:10159C001A605A609A60DA60394B9B69384A43F09A
:1015AC0010039361364B9B6903F01003FB60FB68DF
:1015BC00334B9B69324A43F020039361304B9B6958
:1015CC0003F02003BB60BB682D4B9B692C4A43F096
:1015DC00040393612A4B9B6903F004037B607B68D3
:1015EC00274B9B69264A43F008039361244B9B6964
:1015FC0003F008033B603B6800224FF40051214884
:10160C0001F06EF800224FF478411F4801F068F8A1
:10161C0000224FF480711D4801F062F84FF4005322
:10162C003B6101237B610023BB610223FB6107F15A
:10163C0010031946134800F0D7FE4FF478433B6172
:10164C0001237B610023BB610223FB6107F11003C3
:10165C0019460D4800F0C8FE4FF480733B6101231E
:10166C007B610023BB610223FB6107F11003194668
:10167C00064800F0B9FE00BF2037BD4680BD00BF54
:10168C000010024000100140000C01400008014015
:10169C0080B400AF72B600BFFEE7000080B483B028
:1016AC0000AF78600B467B80054A7B681360044A68
:1016BC007B88938000BF0C37BD4680BC704700BF51
:1016CC00B803002080B483B000AF78600B467B80F9
:1016DC00054A7B689360044A7B88938100BF0C3772
:1016EC00BD4680BC704700BFB803002080B483B0F7
:1016FC0000AF78600B467B80054A7B681361044A17
:10170C007B88938200BF0C37BD4680BC704700BFFE
:10171C00B803002080B483B000AF78600B467B80A8
:10172C00054A7B689361044A7B88938300BF0C371E
:10173C00BD4680BC704700BFB803002080B483B0A6
:10174C0000AF78600B467B80054A7B681362044AC5
:10175C007B88938400BF0C37BD4680BC704700BFAC
:10176C00B803002080B584B000AF0346FB710023A2
:10177C00FB7326E0174B9869164B998BFA79FB7B18
:10178C00C3F1070342FA03F303F00103002B14BF68
:10179C0001230023DBB21A4600F0A2FF0D4B1B6A9B
:1017AC000C4A918C0122184600F09AFF094B1B6AD7
:1017BC00084A918C0022184600F092FFFB7B013303
:1017CC00FB73FB7B072BD5D900BF00BF1037BD4681
:1017DC0080BD00BFB803002080B582B000AF0346C7
:1017EC000A46FB711346BB71BB79002B1CD11E4BF7
:1017FC001B691D4A918A0022184600F071FF1A4B92
:10180C009B68194A91890022184600F069FFFB7900
:10181C001846FFF7A7FF144B9B68134A91890122C6
:10182C00184600F05DFF1BE00F4B1B690E4A918AB6
:10183C000122184600F054FF0B4B9B680A4A918911
:10184C000022184600F04CFFFB791846FFF78AFF80
:10185C00054B9B68044A91890122184600F040FF11
:10186C0000BF0837BD4680BDB803002080B500AF6F
:10187C00174B1B68164A91880022184600F030FF5F
:10188C00134B1B68124A91880122184600F028FF5E
:10189C0000212120FFF7A0FF0021B820FFF79CFFBB
:1018AC0000210420FFF798FF00211420FFF794FF7C
:1018BC0000212020FFF790FF00210C20FFF78CFF68
:1018CC0000F084F8034B002283F8F82100BF80BDA0
:1018DC00B8030020BC01002080B483B000AF0346E5
:1018EC00FB71FB79002B04D0064B012283F8F82105
:1018FC0003E0044B002283F8F82100BF0C37BD46EF
:10190C0080BC7047BC01002080B584B000AF03469A
:10191C00FB710023FB602DE01A4B93F8F83183F038
:10192C000103DBB2002B10D0FB79A3F12002164986
:10193C0013465B0013445B00CA18FB6813441B7806
:10194C0001211846FFF748FF11E0FB79A3F12002B3
:10195C000D4913465B0013445B00CA18FB68134423
:10196C001B78DB43DBB201211846FFF735FFFB6820
:10197C000133FB60FB68052BCEDD00BF00BF1037C9
:10198C00BD4680BDBC010020405D000880B582B022
:10199C0000AF78600B46FB701346BB70BA78FB78CF
:1019AC001146184600F030F806E07B685A1C7A6045
:1019BC001B781846FFF7A8FF7B681B78002BF4D127
:1019CC0000BF00BF0837BD4680BD000080B582B0A7
:1019DC0000AF00237B600BE001210020FFF7FCFE31
:1019EC00084A7B68134400221A707B6801337B60C1
:1019FC007B68B3F5FC7FEFDB00BF00BF0837BD464B
:101A0C0080BD00BFBC01002080B582B000AF034692
:101A1C000A46FB711346BB71FB7963F07F03DBB2A3
:101A2C0000211846FFF7D8FEBB7943F04003DBB228
:101A3C0000211846FFF7D0FE00BF0837BD4680BD19
:101A4C0080B485B000AF154B9B69144A43F0010379
:101A5C009361124B9B6903F00103BB60BB680F4B96
:101A6C00DB690E4A43F08053D3610C4BDB6903F006
:101A7C0080537B607B680A4B5B68FB60FB6823F0E0
:101A8C00E063FB60FB6843F00073FB60044AFB6897
:101A9C00536000BF1437BD4680BC70470010024035
:101AAC000000014080B485B000AF78607B681B6893
:101ABC00094A93420BD1094B9B69084A43F40063D2
:101ACC009361064B9B6903F40063FB60FB6800BFEA
:101ADC001437BD4680BC7047002C014000100240FA
:101AEC0080B58AB000AF786007F1180300221A6045
:101AFC005A609A60DA607B681B683F4A93423AD11D
:101B0C003E4B9B693D4A43F4804393613B4B9B693D
:101B1C0003F480437B617B69384B9B69374A43F004
:101B2C0004039361354B9B6903F004033B613B69F0
:101B3C004FF40073BB610223FB6103237B6207F14B
:101B4C00180319462E4800F04FFC4FF48063BB611C
:101B5C000023FB6100233B6207F118031946284858
:101B6C0000F042FC00220021252000F050FB252033
:101B7C0000F069FB3CE07B681B68224A934237D13A
:101B8C001E4BDB691D4A43F40033D3611B4BDB69ED
:101B9C0003F40033FB60FB68184B9B69174A43F056
:101BAC0004039361154B9B6903F00403BB60BB6892
:101BBC000423BB610223FB6103237B6207F118033F
:101BCC0019460F4800F010FC0823BB610023FB6191
:101BDC0000233B6207F118031946094800F004FC86
:101BEC0000220021262000F012FB262000F02BFB07
:101BFC0000BF2837BD4680BD0038014000100240B0
:101C0C00000801400044004080B400AFFEE780B4FF
:101C1C0000AFFEE780B400AFFEE780B400AFFEE794
:101C2C0080B400AFFEE780B400AF00BFBD4680BCFF
:101C3C00704780B400AF00BFBD4680BC704780B415
:101C4C0000AF00BFBD4680BC704780B500AF02F04E
:101C5C00CBFA00BF80BD000080B483B000AF174B3F
:101C6C001B681B6803F02003002B22D0134B1B684E
:101C7C00DB6803F02003002B1BD0104B1B685B6848
:101C8C00FB710F4B1B78DBB20133DBB203F03F036C
:101C9C00BB710C4B1B78DBB2BA799A4209D0084B5A
:101CAC001B78DBB21946084AFB795354044ABB79BA
:101CBC00137000BF0C37BD4680BC7047E00000209D
:101CCC00E4030020E5030020E803002080B582B087
:101CDC0000AF184B1B681B6803F02003002B22D0AD
:101CEC00144B1B68DB6803F02003002B1BD0114B3B
:101CFC001B685B68FB71104B1B78DBB20133DBB2EA
:101D0C0003F03F03BB710D4B1B78DBB2BA799A42DF
:101D1C0009D0094B1B78DBB21946094AFB7953549D
:101D2C00054ABB791370034801F0C8FC0837BD465F
:101D3C0080BD00BF280100202804002029040020B9
:101D4C002C04002080B400AF01231846BD4680BC93
:101D5C00704780B582B000AF7860396002F088FAC5
:101D6C00034616221A604FF0FF3318460837BD465B
:101D7C0080BD80B582B000AF78604FF0FF317868DD
:101D8C00FFF7E7FFFEE780B586B000AFF860B960FB
:101D9C007A6000237B610AE0AFF300800146BB68E8
:101DAC005A1CBA60CAB21A707B6901337B617A69BA
:101DBC007B689A42F0DB7B6818461837BD4680BDBD
:101DCC0080B586B000AFF860B9607A6000237B61A3
:101DDC0009E0BB685A1CBA601B781846AFF3008048
:101DEC007B6901337B617A697B689A42F1DB7B68A2
:101DFC0018461837BD4680BD80B483B000AF7860FC
:101E0C004FF0FF3318460C37BD4680BC704780B48A
:101E1C0083B000AF786039603B684FF400525A6071
:101E2C00002318460C37BD4680BC704780B483B085
:101E3C0000AF7860012318460C37BD4680BC704754
:101E4C0080B485B000AFF860B9607A6000231846A2
:101E5C001437BD4680BC704780B586B000AF786043
:101E6C00144A154BD31A7B617B693B61134B1B687E
:101E7C00002B02D1114B124A1A60104B1A687B6866
:101E8C0013443A699A4207D202F0F2F903460C2243
:101E9C001A604FF0FF3309E0084B1B68FB60074BDF
:101EAC001A687B681344054A1360FB681846183798
:101EBC00BD4680BD0028002000040000E003002087
:101ECC008004002080B400AF00BFBD4680BC7047CA
:101EDC0080B400AF094B1B78DBB29AB2084B1B786D
:101EEC00DBB29BB2D31A9BB240339BB21BB203F052
:101EFC003F031BB21846BD4680BC7047E40300206C
:101F0C00E503002080B483B000AF114B1B78DAB22C
:101F1C00104B1B78DBB29A4202D14FF0FF3312E028
:101F2C000C4B1B78DBB21A460B4B9B5CFB71094BC1
:101F3C001B78DBB20133DBB203F03F03DAB2054BA3
:101F4C001A70FB791BB218460C37BD4680BC704723
:101F5C00E4030020E5030020E803002080B400AF78
:101F6C00094B1B78DBB29AB2084B1B78DBB29BB2E5
:101F7C00D31A9BB240339BB21BB203F03F031BB28C
:101F8C001846BD4680BC7047280400202904002058
:101F9C0080B483B000AF114B1B78DAB2104B1B78B6
:101FAC00DBB29A4202D14FF0FF3312E00C4B1B789C
:101FBC00DBB21A460B4B9B5CFB71094B1B78DBB2FB
:101FCC000133DBB203F03F03DAB2054B1A70FB7935
:101FDC001BB218460C37BD4680BC70472804002045
:101FEC00290400202C040020FFF76CFF0B480C493F
:101FFC000C4A002302E0D458C4500433C4188C4259
:10200C00F9D3094A094C002301E013600432A242BF
:10201C00FBD302F033F9FEF773FE7047000000208B
:10202C0074000020FC610008740000208004002073
:10203C00FEE7000080B485B000AF78607B6803F0E9
:10204C000703FB600C4BDB68BB60BA684FF6FF0301
:10205C001340BB60FB681A02BB68134343F0BF63B9
:10206C0043F40033BB60044ABB68D36000BF143731
:10207C00BD4680BC704700BF00ED00E080B400AFEF
:10208C00044BDB681B0A03F007031846BD4680BCF3
:10209C00704700BF00ED00E080B483B000AF034692
:1020AC00FB7197F90730002B0BDBFB7903F01F0258
:1020BC00064997F907305B09012000FA02F241F852
:1020CC00232000BF0C37BD4680BC704700E100E008
:1020DC0080B483B000AF03463960FB7197F90730C9
:1020EC00002B0ADB3B68DAB20C4997F90730120176
:1020FC00D2B20B4483F800230AE03B68DAB20849F9
:10210C00FB7903F00F03043B1201D2B20B441A7695
:10211C0000BF0C37BD4680BC704700BF00E100E03B
:10212C0000ED00E080B489B000AFF860B9607A606F
:10213C00FB6803F00703FB61FB69C3F10703042B86
:10214C0028BF0423BB61FB690433062B02D9FB694E
:10215C00033B00E000237B614FF0FF32BB6902FAC6
:10216C0003F3DA43BB681A407B699A404FF0FF31A6
:10217C007B6901FA03F3D9437B680B401343184680
:10218C002437BD4680BC704780B400AFBFF34F8F7F
:10219C0000BF064BDB6803F4E0620449044B1343B5
:1021AC00CB60BFF34F8F00BF00BFFDE700ED00E039
:1021BC000400FA0580B582B000AF78607B68013B03
:1021CC00B3F1807F01D301230FE00A4A7B68013B06
:1021DC0053600F214FF0FF30FFF77AFF054B0022C1
:1021EC009A60044B07221A60002318460837BD4634
:1021FC0080BD00BF10E000E080B582B000AF786019
:10220C007868FFF717FF00BF0837BD4680BD80B563
:10221C0086B000AF0346B9607A60FB7300237B6124
:10222C00FFF72CFF78617A68B9687869FFF77AFF55
:10223C00024697F90F3011461846FFF749FF00BFC9
:10224C001837BD4680BD80B582B000AF0346FB7128
:10225C0097F907301846FFF71FFF00BF0837BD4638
:10226C0080BD80B500AFFFF78FFF80B582B000AFA7
:10227C0078607868FFF79EFF034618460837BD461E
:10228C0080BD80B485B000AF78600023FB737B68A1
:10229C0093F82130DBB2022B08D07B6804229A63BE
:1022AC007B68002283F82020012320E07B681B68D8
:1022BC001A687B681B6822F00E021A607B681B6828
:1022CC001A687B681B6822F001021A607B681A6C22
:1022DC007B68DB6B012101FA02F25A607B680122F8
:1022EC0083F821207B68002283F82020FB7B184692
:1022FC001437BD4680BC704780B584B000AF7860A1
:10230C000023FB737B6893F82130DBB2022B05D0E2
:10231C007B6804229A630123FB7351E07B681B6882
:10232C001A687B681B6822F00E021A607B681B68B7
:10233C001A687B681B6822F001021A607B681B68B4
:10234C00224A934229D07B681B68214A934222D0AF
:10235C007B681B681F4A93421AD07B681B681E4A15
:10236C00934212D07B681B681C4A93420AD07B684C
:10237C001B681B4A934202D14FF480130EE04FF0BE
:10238C0080730BE04FF4803308E04FF4805305E08A
:10239C004FF4807302E0102300E00123114A5360D4
:1023AC007B68012283F821207B68002283F820209F
:1023BC007B685B6B002B03D07B685B6B7868984702
:1023CC00FB7B18461037BD4680BD00BF080002409D
:1023DC001C00024030000240440002405800024001
:1023EC006C0002400000024080B48BB000AF7860FB
:1023FC00396000237B6200233B6261E101227B6A2E
:10240C0002FA03F3FB613B681B68FA691340BB617A
:10241C00BA69FB699A4240F050813B685B68974A05
:10242C0093425ED0954A934275D8954A934258D0C0
:10243C00934A93426FD8934A934252D0914A934213
:10244C0069D8914A93424CD08F4A934263D88F4AB1
:10245C00934246D08D4A93425DD8122B2AD8122B28
:10246C0059D801A252F823F0EF240008C92400081F
:10247C00DB2400081D25000823250008232500085F
:10248C002325000823250008232500082325000800
:10249C0023250008232500082325000823250008F0
:1024AC00232500082325000823250008D124000833
:1024BC00E5240008764A934213D02CE03B68DB6895
:1024CC003B6229E03B68DB6804333B6224E03B68F9
:1024DC00DB6808333B621FE03B68DB680C333B6214
:1024EC001AE03B689B68002B02D104233B6213E08B
:1024FC003B689B68012B05D108233B627B68FA691A
:10250C001A6109E008233B627B68FA695A6103E0AF
:10251C0000233B6200E000BFBB69FF2B01D87B6846
:10252C0001E07B6804337B61BB69FF2B02D87B6ABB
:10253C009B0002E07B6A083B9B003B617B691A684D
:10254C000F213B6901FA03F3DB431A40396A3B69FB
:10255C0001FA03F31A437B691A603B685B6803F06A
:10256C008053002B00F0A9804A4B9B69494A43F0E9
:10257C0001039361474B9B6903F00103BB60BB688C
:10258C00454A7B6A9B08023352F82330FB607B6A16
:10259C0003F003039B000F2202FA03F3DB43FA68F8
:1025AC001340FB607B683D4A93420DD07B683C4AEC
:1025BC00934207D07B683B4A934201D1022304E04B
:1025CC00032302E0012300E000237A6A02F00302F5
:1025DC0092009340FA681343FB602F497B6A9B0877
:1025EC000233FA6841F823203B685B6803F48013DC
:1025FC00002B06D02C4B9A682B49BB6913438B607C
:10260C0006E0294B9A68BB69DB43274913408B6072
:10261C003B685B6803F40013002B06D0224BDA688E
:10262C002149BB691343CB6006E01F4BDA68BB69D9
:10263C00DB431D491340CB603B685B6803F40033FC
:10264C00002B06D0184B5A681749BB6913434B60D3
:10265C0006E0154B5A68BB69DB43134913404B60CA
:10266C003B685B6803F48033002B1FD00E4B1A6859
:10267C000D49BB6913430B601FE000BF0000321013
:10268C000000311000002210000021100000121078
:10269C000000111000100240000001400008014031
:1026AC00000C014000100140000401400B4B1A6863
:1026BC00BB69DB43094913400B607B6A01337B62C6
:1026CC003B681A687B6A22FA03F3002B7FF496AE00
:1026DC0000BF00BF2C37BD4680BC704700040140D2
:1026EC0080B483B000AF78600B467B8013467B7060
:1026FC007B78002B03D07A887B681A6103E07B8897
:10270C001A047B681A6100BF0C37BD4680BC704749
:10271C0080B485B000AF78600B467B807B68DB684B
:10272C00FB607A88FB6813401A04FB68D9437B88EA
:10273C000B401A437B681A6100BF1437BD4680BC3E
:10274C007047000080B586B000AF78607B68002BC6
:10275C0001D1012372E27B681B6803F00103002B9B
:10276C0000F08780924B5B6803F00C03042B0CD0B9
:10277C008F4B5B6803F00C03082B12D18C4B5B68FE
:10278C0003F48033B3F5803F0BD1894B1B6803F402
:10279C000033002B6CD07B685B68002B68D1012365
:1027AC004CE27B685B68B3F5803F06D1804B1B68BD
:1027BC007F4A43F4803313602EE07B685B68002B08
:1027CC000CD17B4B1B687A4A23F480331360784B13
:1027DC001B68774A23F4802313601DE07B685B68D9
:1027EC00B3F5A02F0CD1724B1B68714A43F48023B4
:1027FC0013606F4B1B686E4A43F4803313600BE01D
:10280C006B4B1B686A4A23F480331360684B1B685C
:10281C00674A23F4802313607B685B68002B13D01A
:10282C0001F0F4FC386108E001F0F0FC02463B6971
:10283C00D31A642B01D9032300E25D4B1B6803F40C
:10284C000033002BF0D014E001F0E0FC386108E01C
:10285C0001F0DCFC02463B69D31A642B01D903233B
:10286C00ECE1534B1B6803F40033002BF0D100E078
:10287C0000BF7B681B6803F00203002B63D04C4B3A
:10288C005B6803F00C03002B0BD0494B5B6803F027
:10289C000C03082B1CD1464B5B6803F48033002BD4
:1028AC0016D1434B1B6803F00203002B05D07B6849
:1028BC001B69012B01D00123C0E13D4B1B6823F0A8
:1028CC00F8027B685B69DB00394913430B603AE023
:1028DC007B681B69002B20D0364B01221A6001F05B
:1028EC0095FC386108E001F091FC02463B69D31A73
:1028FC00022B01D90323A1E12D4B1B6803F002032A
:10290C00002BF0D02A4B1B6823F0F8027B685B6924
:10291C00DB00274913430B6015E0264B00221A609D
:10292C0001F074FC386108E001F070FC02463B6970
:10293C00D31A022B01D9032380E11D4B1B6803F032
:10294C000203002BF0D17B681B6803F00803002BFB
:10295C003AD07B689B69002B19D0174B01221A6067
:10296C0001F054FC386108E001F050FC02463B6970
:10297C00D31A022B01D9032360E10D4B5B6A03F0E0
:10298C000203002BF0D0012000F0CEFA1CE00A4B21
:10299C0000221A6001F03AFC38610FE001F036FCBD
:1029AC0002463B69D31A022B08D9032346E100BF28
:1029BC00001002400000424280044242924B5B6A8B
:1029CC0003F00203002BE9D17B681B6803F00403BE
:1029DC00002B00F0A6800023FB758B4BDB6903F00A
:1029EC008053002B0DD1884BDB69874A43F0805311
:1029FC00D361854BDB6903F08053BB60BB6801235B
:102A0C00FB75824B1B6803F48073002B18D17F4B32
:102A1C001B687E4A43F48073136001F0F7FB386146
:102A2C0008E001F0F3FB02463B69D31A642B01D991
:102A3C00032303E1754B1B6803F48073002BF0D068
:102A4C007B68DB68012B06D16F4B1B6A6E4A43F027
:102A5C00010313622DE07B68DB68002B0CD16A4B01
:102A6C001B6A694A23F001031362674B1B6A664AAF
:102A7C0023F0040313621CE07B68DB68052B0CD18C
:102A8C00614B1B6A604A43F0040313625E4B1B6A82
:102A9C005D4A43F0010313620BE05B4B1B6A5A4A1D
:102AAC0023F001031362584B1B6A574A23F00403AB
:102ABC0013627B68DB68002B15D001F0A7FB386133
:102ACC000AE001F0A3FB02463B69D31A41F28832BB
:102ADC00934201D90323B1E04B4B1B6A03F0020371
:102AEC00002BEED014E001F091FB38610AE001F00C
:102AFC008DFB02463B69D31A41F28832934201D9CD
:102B0C0003239BE0404B1B6A03F00203002BEED126
:102B1C00FB7D012B05D13C4BDB693B4A23F08053F9
:102B2C00D3617B68DB69002B00F08780364B5B68D8
:102B3C0003F00C03082B61D07B68DB69022B46D1B8
:102B4C00334B00221A6001F061FB386108E001F0A0
:102B5C005DFB02463B69D31A022B01D903236DE0BE
:102B6C00294B1B6803F00073002BF0D17B681B6AA8
:102B7C00B3F5803F08D1244B5B6823F400327B68AB
:102B8C009B68214913434B601F4B5B6823F4741201
:102B9C007B68196A7B685B6A0B431B4913434B6068
:102BAC001B4B01221A6001F031FB386108E001F087
:102BBC002DFB02463B69D31A022B01D903233DE0BE
:102BCC00114B1B6803F00073002BF0D035E0104B59
:102BDC0000221A6001F01AFB386108E001F016FBC4
:102BEC0002463B69D31A022B01D9032326E0064B7C
:102BFC001B6803F00073002BF0D11EE07B68DB69CF
:102C0C00012B07D1012319E0001002400070004095
:102C1C00600042420B4B5B68FB60FB6803F4803244
:102C2C007B681B6A9A4206D1FB6803F470127B68BE
:102C3C005B6A9A4201D0012300E000231846183742
:102C4C00BD4680BD0010024080B584B000AF7860F6
:102C5C0039607B68002B01D10123D0E06A4B1B68E3
:102C6C0003F007033A689A4210D9674B1B6823F0AC
:102C7C00070265493B6813430B60634B1B6803F009
:102C8C0007033A689A4201D00123B8E07B681B68BD
:102C9C0003F00203002B20D07B681B6803F00403B5
:102CAC00002B05D0594B5B68584A43F4E0635360E2
:102CBC007B681B6803F00803002B05D0534B5B6843
:102CCC00524A43F460535360504B5B6823F0F0025C
:102CDC007B689B684D4913434B607B681B6803F012
:102CEC000103002B40D07B685B68012B07D1474B5D
:102CFC001B6803F40033002B15D101237FE07B68A4
:102D0C005B68022B07D1414B1B6803F00073002B4F
:102D1C0009D1012373E03D4B1B6803F00203002B28
:102D2C0001D101236BE0394B5B6823F003027B6814
:102D3C005B68364913434B6001F068FAF8600AE0AF
:102D4C0001F064FA0246FB68D31A41F288329342CE
:102D5C0001D9032353E02D4B5B6803F00C027B6815
:102D6C005B689B009A42EBD1274B1B6803F007036F
:102D7C003A689A4210D2244B1B6823F0070222496E
:102D8C003B6813430B60204B1B6803F007033A6846
:102D9C009A4201D0012332E07B681B6803F00403E4
:102DAC00002B08D0194B5B6823F4E0627B68DB686E
:102DBC00164913434B607B681B6803F00803002B18
:102DCC0009D0124B5B6823F460527B681B69DB00F3
:102DDC000E4913434B6000F021F802460B4B5B6825
:102DEC001B0903F00F030A49CB5C22FA03F3094ACF
:102DFC001360094B1B68184601F0C6F900231846EE
:102E0C001037BD4680BD00BF0020024000100240BC
:102E1C00805F0008040000200800002080B487B008
:102E2C0000AF0023FB600023BB6000237B61002309
:102E3C007B6000233B611E4B5B68FB60FB6803F00F
:102E4C000C03042B02D0082B03D027E0194B3B6159
:102E5C0027E0FB689B0C03F00F03174AD35C7B60E5
:102E6C00FB6803F48033002B10D0114B5B685B0CB8
:102E7C0003F00103114AD35CBB607B680D4A03FB72
:102E8C0002F2BB68B2FBF3F37B6104E07B680C4A93
:102E9C0002FB03F37B617B693B6102E0054B3B6109
:102EAC0000BF3B6918461C37BD4680BC704700BF4D
:102EBC000010024000127A00985F0008A85F00081A
:102ECC0000093D0080B400AF024B1B681846BD469C
:102EDC0080BC70470400002080B500AFFFF7F2FF04
:102EEC000246054B5B681B0A03F007030349CB5CE6
:102EFC0022FA03F3184680BD00100240905F0008D0
:102F0C0080B500AFFFF7DEFF0246054B5B68DB0ABE
:102F1C0003F007030349CB5C22FA03F3184680BD88
:102F2C0000100240905F000880B485B000AF78605C
:102F3C000A4B1B680A4AA2FB03235B0A7A6802FB52
:102F4C0003F3FB6000BFFB685A1EFA60002BF9D13B
:102F5C0000BF00BF1437BD4680BC70470400002082
:102F6C00D34D621080B485B000AF786039607B6857
:102F7C0093F83C30012B01D1022341E07B68012204
:102F8C0083F83C207B68022283F83D207B681B6819
:102F9C005B68FB607B681B689B68BB60FB6823F00D
:102FAC007003FB603B681B68FA681343FB607B682B
:102FBC001B68FA685A607B681B68144A934209D0F4
:102FCC007B681B68B3F1804F04D07B681B68104A88
:102FDC0093420CD1BB6823F08003BB603B685B68F9
:102FEC00BA681343BB607B681B68BA689A607B68DD
:102FFC00012283F83D207B68002283F83C200023CB
:10300C0018461437BD4680BC704700BF002C0140E9
:10301C000004004080B582B000AF78607B68002B64
:10302C0001D1012341E07B6893F83D30DBB2002BEA
:10303C0006D17B68002283F83C207868FEF732FDCD
:10304C007B68022283F83D207B681A687B68043316
:10305C001946104600F070F97B68012283F846206F
:10306C007B68012283F83E207B68012283F83F2095
:10307C007B68012283F840207B68012283F8412081
:10308C007B68012283F842207B68012283F843206D
:10309C007B68012283F844207B68012283F8452059
:1030AC007B68012283F83D20002318460837BD4673
:1030BC0080BD000080B485B000AF78607B6893F869
:1030CC003D30DBB2012B01D0012335E07B680222BD
:1030DC0083F83D207B681B68DA687B681B6842F0CC
:1030EC000102DA607B681B68164A934209D07B6840
:1030FC001B68B3F1804F04D07B681B68124A934263
:10310C0011D17B681B689B6803F00703FB60FB68AD
:10311C00062B10D07B681B681A687B681B6842F012
:10312C0001021A6007E07B681B681A687B681B68E1
:10313C0042F001021A60002318461437BD4680BCC9
:10314C00704700BF002C01400004004080B483B0E5
:10315C0000AF78607B681B68DA687B681B6822F0BC
:10316C000102DA607B681B681A6A41F21113134082
:10317C00002B0FD17B681B681A6A40F24443134042
:10318C00002B07D17B681B681A687B681B6822F0D0
:10319C0001021A607B68012283F83D200023184647
:1031AC000C37BD4680BC704780B584B000AF7860EA
:1031BC0039600023FB737B6893F83C30012B01D101
:1031CC000223B4E07B68012283F83C207B68022256
:1031DC0083F83D207B681B689B68BB60BB6823F051
:1031EC007703BB60BB6823F47F43BB607B681B68C1
:1031FC00BA689A603B681B68B3F5005F3ED0B3F5C4
:10320C00005F00F28780B3F5805F00F08680B3F535
:10321C00805F7FD8702B1AD0702B7BD8602B50D04E
:10322C00602B77D8502B3CD0502B73D8402B58D0D8
:10323C00402B6FD8302B64D0302B6BD8202B60D028
:10324C00202B67D8002B5CD0102B5AD062E07B6807
:10325C0018683B6899683B685A683B68DB6800F003
:10326C003AF97B681B689B68BB60BB6843F07703CB
:10327C00BB607B681B68BA689A604FE07B68186813
:10328C003B6899683B685A683B68DB6800F023F937
:10329C007B681B689A687B681B6842F480429A6062
:1032AC003CE07B6818683B6859683B68DB681A46E9
:1032BC0000F09AF87B681B685021184600F0F1F872
:1032CC002CE07B6818683B6859683B68DB681A46D9
:1032DC0000F0B8F87B681B686021184600F0E1F834
:1032EC001CE07B6818683B6859683B68DB681A46C9
:1032FC0000F07AF87B681B684021184600F0D1F882
:10330C000CE07B681A683B681B681946104600F095
:10331C00C8F803E00123FB7300E000BF7B680122C7
:10332C0083F83D207B68002283F83C20FB7B184609
:10333C001037BD4680BD000080B485B000AF78600A
:10334C0039607B681B68FB607B68254A934207D019
:10335C007B68B3F1804F03D07B68224A934208D13B
:10336C00FB6823F07003FB603B685B68FA681343EF
:10337C00FB607B681A4A934207D07B68B3F1804F9D
:10338C0003D07B68174A934208D1FB6823F440733F
:10339C00FB603B68DB68FA681343FB60FB6823F057
:1033AC0080023B685B691343FB607B68FA681A60B8
:1033BC003B689A687B68DA623B681A687B689A6239
:1033CC007B68074A934203D13B681A697B681A638E
:1033DC007B6801225A6100BF1437BD4680BC704720
:1033EC00002C01400004004080B487B000AFF860AE
:1033FC00B9607A60FB681B6A7B61FB681B6A23F00F
:10340C000102FB681A62FB689B693B613B6923F014
:10341C00F0033B617B681B013A6913433B617B6999
:10342C0023F00A037B617A69BB6813437B61FB68F9
:10343C003A699A61FB687A691A6200BF1C37BD460B
:10344C0080BC704780B487B000AFF860B9607A6018
:10345C00FB681B6A7B61FB681B6A23F01002FB682C
:10346C001A62FB689B693B613B6923F470433B61C7
:10347C007B681B033A6913433B617B6923F0A00310
:10348C007B61BB681B017A6913437B61FB683A69FA
:10349C009A61FB687A691A6200BF1C37BD4680BC12
:1034AC00704780B485B000AF786039607B689B68EA
:1034BC00FB60FB6823F07003FB603A68FB68134306
:1034CC0043F00703FB607B68FA689A6000BF14370F
:1034DC00BD4680BC704780B487B000AFF860B9605F
:1034EC007A603B60FB689B687B617B6923F47F435C
:1034FC007B613B681A027B681A43BB6813437A6989
:10350C0013437B61FB687A699A6000BF1C37BD4628
:10351C0080BC704780B582B000AF78607B68002BB0
:10352C0001D1012342E07B6893F84130DBB2002BE0
:10353C0006D17B68002283F840207868FEF7D0FA29
:10354C007B68242283F841207B681B68DA687B68DF
:10355C001B6822F40052DA60786800F071FD7B6819
:10356C001B681A697B681B6822F490421A617B689D
:10357C001B685A697B681B6822F02A025A617B68B7
:10358C001B68DA687B681B6842F40052DA607B685F
:10359C0000225A647B68202283F841207B68202219
:1035AC0083F842207B6800225A63002318460837B0
:1035BC00BD4680BD80B58AB002AFF860B9603B6093
:1035CC001346FB8000237B61FB6893F84130DBB230
:1035DC00202B6DD1BB68002B02D0FB88002B01D1B6
:1035EC00012366E0FB6800225A64FB68212283F801
:1035FC00412000F00BFE7861FB68FA889A84FB6826
:10360C00FA88DA84FB689B68B3F5805F08D1FB68A5
:10361C001B69002B04D10023FB61BB68BB6103E079
:10362C00BB68FB610023BB612AE03B6800937B69AC
:10363C0000228021F86800F0F9FA0346002B01D033
:10364C00032336E0FB69002B0BD1BB691B881A46A0
:10365C00FB681B68C2F308025A60BB690233BB618A
:10366C0007E0FB691A78FB681B685A60FB69013339
:10367C00FB61FB68DB8C9BB2013B9AB2FB68DA8482
:10368C00FB68DB8C9BB2002BCFD13B6800937B6932
:10369C0000224021F86800F0C9FA0346002B01D043
:1036AC00032306E0FB68202283F84120002300E07E
:1036BC00022318462037BD4680BD000080B5BAB045
:1036CC0000AF78607B681B681B68C7F8E4307B68C8
:1036DC001B68DB68C7F8E0307B681B685B69C7F860
:1036EC00DC300023C7F8D8300023C7F8D430D7F823
:1036FC00E43003F00F03C7F8D830D7F8D830002BDC
:10370C000FD1D7F8E43003F02003002B09D0D7F801
:10371C00E03003F02003002B03D0786800F0D1FBDD
:10372C005BE2D7F8D830002B00F0DE80D7F8DC3025
:10373C0003F00103002B06D1D7F8E03003F49073AB
:10374C00002B00F0D180D7F8E43003F00103002BFC
:10375C000BD0D7F8E03003F48073002B05D07B68D6
:10376C005B6C43F001027B685A64D7F8E43003F0D9
:10377C000403002B0BD0D7F8DC3003F00103002B33
:10378C0005D07B685B6C43F002027B685A64D7F807
:10379C00E43003F00203002B0BD0D7F8DC3003F03D
:1037AC000103002B05D07B685B6C43F004027B6843
:1037BC005A64D7F8E43003F00803002B11D0D7F883
:1037CC00E03003F02003002B05D1D7F8DC3003F0F8
:1037DC000103002B05D07B685B6C43F008027B680F
:1037EC005A647B685B6C002B00F0F281D7F8E430F4
:1037FC0003F02003002B08D0D7F8E03003F02003AF
:10380C00002B02D0786800F05CFB7B681B685B695E
:10381C0003F04003002B14BF01230023DBB2C7F8D5
:10382C00D4307B685B6C03F00803002B03D1D7F812
:10383C00D430002B4FD0786800F066FA7B681B6898
:10384C005B6903F04003002B41D07B681B68143389
:10385C00C7F89C30D7F89C3053E8003FC7F8983035
:10386C00D7F8983023F04003C7F8D0307B681B683A
:10387C001433D7F8D020C7F8A820C7F8A430D7F84D
:10388C00A410D7F8A82041E80023C7F8A030D7F837
:10389C00A030002BD9D17B68DB6B002B13D07B685D
:1038AC00DB6B7E4A5A637B68DB6B1846FEF724FDA4
:1038BC000346002B16D07B68DB6B5B6B7A68D26B94
:1038CC00104698470EE0786800F09CF90AE078689A
:1038DC0000F098F906E0786800F094F97B68002213
:1038EC005A6475E100BF73E17B681B6B012B40F0E0
:1038FC004F81D7F8E43003F01003002B00F048811F
:10390C00D7F8E03003F01003002B00F041810023C6
:10391C00BB607B681B681B68BB607B681B685B6853
:10392C00BB60BB687B681B685B6903F04003002BC2
:10393C0000F0B6807B68DB6B1B685B68A7F8BE3059
:10394C00B7F8BE30002B00F045817B689B8DB7F833
:10395C00BE209A4280F03E817B68B7F8BE20DA85A3
:10396C007B68DB6B9B69202B00F088807B681B6875
:10397C000C33C7F88830D7F8883053E8003FC7F8C5
:10398C008430D7F8843023F48073C7F8B8307B6860
:10399C001B680C33D7F8B820C7F89420C7F89030C0
:1039AC00D7F89010D7F8942041E80023C7F88C3052
:1039BC00D7F88C30002BD9D17B681B6814337B670C
:1039CC007B6F53E8003F3B673B6F23F00103C7F865
:1039DC00B4307B681B681433D7F8B420C7F8802048
:1039EC00FB67F96FD7F8802041E80023BB67BB6FFA
:1039FC00002BE1D17B681B6814333B663B6E53E8AC
:103A0C00003FFB65FB6D23F04003C7F8B0307B68CB
:103A1C001B681433D7F8B020FA66BB66B96EFA6E21
:103A2C0041E800237B667B6E002BE3D17B68202270
:103A3C0083F842207B6800221A637B681B680C3376
:103A4C00FB64FB6C53E8003FBB64BB6C23F01003BE
:103A5C00C7F8AC307B681B680C33D7F8AC20BA6560
:103A6C007B65796DBA6D41E800233B653B6D002B9E
:103A7C00E3D17B68DB6B1846FEF703FC7B68022204
:103A8C005A637B689A8D7B68DB8D9BB2D31A9BB291
:103A9C001946786800F0BFF89CE000BFD93D0008DB
:103AAC007B689A8D7B68DB8D9BB2D31AA7F8CE30DE
:103ABC007B68DB8D9BB2002B00F08E80B7F8CE308C
:103ACC00002B00F089807B681B680C33BB63BB6BDD
:103ADC0053E8003F7B637B6B23F49073C7F8C830CB
:103AEC007B681B680C33D7F8C8207A643B64396C4C
:103AFC007A6C41E80023FB63FB6B002BE3D17B6802
:103B0C001B6814337B627B6A53E8003F3B623B6A61
:103B1C0023F00103C7F8C4307B681B681433D7F853
:103B2C00C4203A63FB62F96A3A6B41E80023BB623A
:103B3C00BB6A002BE3D17B68202283F842207B6890
:103B4C0000221A637B681B680C333B613B6953E8AA
:103B5C00003FFB60FB6823F01003C7F8C0307B68A4
:103B6C001B680C33D7F8C020FA61BB61B969FA69DC
:103B7C0041E800237B617B69002BE3D17B68022247
:103B8C005A63B7F8CE301946786800F044F823E051
:103B9C00D7F8E43003F08003002B09D0D7F8E030DD
:103BAC0003F08003002B03D0786800F023F914E0B5
:103BBC00D7F8E43003F04003002B0ED0D7F8E030F8
:103BCC0003F04003002B08D0786800F062F904E0A1
:103BDC0000BF02E000BF00E000BFE837BD4680BD7B
:103BEC0080B483B000AF786000BF0C37BD4680BC9A
:103BFC00704780B483B000AF786000BF0C37BD460F
:103C0C0080BC704780B483B000AF786000BF0C37C5
:103C1C00BD4680BC704780B483B000AF78600B4663
:103C2C007B8000BF0C37BD4680BC704780B590B020
:103C3C0000AFF860B9603B601346FB7150E0BB6CA1
:103C4C00B3F1FF3F4CD0BB6C002B07D000F0DEFA79
:103C5C0002463B68D31ABA6C9A4241D2FB681B6885
:103C6C000C33BB62BB6A53E8003F7B627B6A23F474
:103C7C00D073FB63FB681B680C33FA6B7A633B6392
:103C8C00396B7A6B41E80023FB62FB6A002BE5D1B0
:103C9C00FB681B6814337B617B6953E8003F3B6115
:103CAC003B6923F00103BB63FB681B681433BA6BDD
:103CBC003A62FB61F9693A6A41E80023BB61BB696E
:103CCC00002BE5D1FB68202283F84120FB682022E1
:103CDC0083F84220FB68002283F8402003230FE086
:103CEC00FB681B681A68BB681340BA689A420CBF21
:103CFC0001230023DBB21A46FB799A429FD00023A2
:103D0C0018464037BD4680BD80B495B000AF786092
:103D1C007B681B680C337B637B6B53E8003F3B6316
:103D2C003B6B23F49073FB647B681B680C33FA6C5D
:103D3C003A64FB63F96B3A6C41E80023BB63BB6BE1
:103D4C00002BE5D17B681B6814333B623B6A53E85C
:103D5C00003FFB61FB6923F00103BB647B681B68BC
:103D6C001433BA6CFA62BB62B96AFA6A41E800238E
:103D7C007B627B6A002BE5D17B681B6B012B19D115
:103D8C007B681B680C33FB60FB6853E8003FBB602F
:103D9C00BB6823F010037B647B681B680C337A6C64
:103DAC00BA617B617969BA6941E800233B613B697F
:103DBC00002BE5D17B68202283F842207B6800220F
:103DCC001A6300BF5437BD4680BC704780B584B0C1
:103DDC0000AF78607B685B6AFB60FB680022DA8569
:103DEC00FB680022DA84F868FFF70CFF00BF10377D
:103DFC00BD4680BD80B485B000AF78607B6893F819
:103E0C004130DBB2212B3ED17B689B68B3F5805FE0
:103E1C0014D17B681B69002B10D17B681B6AFB607B
:103E2C00FB681B881A467B681B68C2F308025A6041
:103E3C007B681B6A9A1C7B681A6208E07B681B6AA9
:103E4C00591C7A6811621A787B681B685A607B6807
:103E5C00DB8C9BB2013B9BB27A681946D184002B58
:103E6C000FD17B681B68DA687B681B6822F08002C4
:103E7C00DA607B681B68DA687B681B6842F040027A
:103E8C00DA60002300E0022318461437BD4680BCDC
:103E9C00704780B582B000AF78607B681B68DA68C9
:103EAC007B681B6822F04002DA607B68202283F872
:103EBC0041207868FFF794FE002318460837BD466A
:103ECC0080BD80B58CB000AF78607B6893F84230D1
:103EDC00DBB2222B40F0AE807B689B68B3F5805F31
:103EEC0017D17B681B69002B13D10023FB627B6805
:103EFC009B6ABB627B681B685B689BB2C3F308035D
:103F0C009AB2BB6A1A807B689B6A9A1C7B689A621D
:103F1C0026E07B689B6AFB620023BB627B689B6824
:103F2C00B3F5805F07D07B689B68002B0AD17B6858
:103F3C001B69002B06D17B681B685B68DAB2FB6AD5
:103F4C001A7008E07B681B685B68DBB203F07F03C8
:103F5C00DAB2FB6A1A707B689B6A5A1C7B689A629D
:103F6C007B68DB8D9BB2013B9BB27A681946D1858D
:103F7C00002B5DD17B681B68DA687B681B6822F0BC
:103F8C002002DA607B681B68DA687B681B6822F4A5
:103F9C008072DA607B681B685A697B681B6822F048
:103FAC0001025A617B68202283F842207B68002240
:103FBC005A637B681B6B012B35D17B6800221A631B
:103FCC007B681B680C337B617B6953E8003F3B616A
:103FDC003B6923F010037B627B681B680C337A6AA5
:103FEC003A62FB61F9693A6A41E80023BB61BB693B
:103FFC00002BE5D17B681B681B6803F01003102BAA
:10400C000AD10023FB607B681B681B68FB607B6824
:10401C001B685B68FB60FB687B689B8D1946786846
:10402C00FFF7F9FD02E07868FFF7E3FD002302E0FB
:10403C00002300E0022318463037BD4680BD000047
:10404C0080B584B000AF78607B681B681B6923F473
:10405C0040517B68DA687B681B680A431A617B688D
:10406C009A687B681B691A437B685B691343BB6066
:10407C007B681B68DB6823F4B05323F00C037A686D
:10408C001268B9680B43D3607B681B685B6923F4C7
:10409C0040717B689A697B681B680A435A617B682C
:1040AC001B682C4A934203D1FEF72AFFF86002E00A
:1040BC00FEF712FFF860FA6813469B0013449A004F
:1040CC001A447B685B689B00B2FBF3F3224AA2FBA9
:1040DC0003235B091901FA6813469B0013449A00E9
:1040EC001A447B685B689B00B2FBF3F21A4BA3FB90
:1040FC0002035B09642000FB03F3D31A1B01323368
:10410C00154AA2FB03235B0903F0F0031944FA6878
:10411C0013469B0013449A001A447B685B689B000F
:10412C00B2FBF3F20C4BA3FB02035B09642000FB14
:10413C0003F3D31A1B013233074AA2FB03235B0997
:10414C0003F00F027B681B680A449A6000BF1037AB
:10415C00BD4680BD003801401F85EB5180B500AFD6
:10416C00084B1B68074A43F0100313600320FEF74B
:10417C0043F80F2000F008F8FDF762FC0023184606
:10418C0080BD00BF0020024080B582B000AF7860D7
:10419C00124B1A68124B1B7819464FF47A73B3FB07
:1041AC00F1F3B2FBF3F31846FEF75FF80346002B6E
:1041BC0001D001230EE07B680F2B0AD8002279680E
:1041CC004FF0FF30FEF723F8064A7B68136000239C
:1041DC0000E0012318460837BD4680BD04000020CE
:1041EC000C0000200800002080B400AF054B1B78A9
:1041FC001A46054B1B681344034A136000BFBD46A7
:10420C0080BC70470C0000206C04002080B400AF10
:10421C00024B1B681846BD4680BC70476C040020DE
:10422C0080B584B000AF7860FFF7F0FFB8607B68B2
:10423C00FB60FB68B3F1FF3F05D00A4B1B781A46B5
:10424C00FB681344FB6000BFFFF7E0FF0246BB684E
:10425C00D31AFA689A42F7D800BF00BF1037BD4690
:10426C0080BD00BF0C0000200A22002100F062B9C2
:10427C00014B1868704700BF1000002070B5002675
:10428C000C4D0D4C641BA410A64209D101F018FB77
:10429C0000260A4D0A4C641BA410A64205D170BD21
:1042AC0055F8043B98470136EEE755F8043B984720
:1042BC000136F2E7F4610008F4610008F4610008CB
:1042CC00F861000803460244934200D1704703F89A
:1042DC00011BF9E70CB430B5174B0C1E1D689DB0D3
:1042EC0008DA8B234FF0FF302B601DB0BDE8304057
:1042FC0002B070474FF40273ADF814300CBF234674
:10430C0004F1FF33049307934FF6FF73029006906A
:10431C00ADF81630284621AB209A02A9019300F083
:10432C0083FA431CBCBF8B232B60002CDDD00022F6
:10433C00029B1A70D9E700BF100000200346C9B2D7
:10434C00184613F8012B12B18A42F9D17047002993
:10435C0018BF002070470A7870B56AB970BD9A42D0
:10436C0009D10C46054614F8013F002BF6D015F880
:10437C00016F9E42F7D001300378002BEFD1184625
:10438C00ECE70000164B2DE9F0411F680546BC6DAB
:10439C000E46ECB9502000F007F90246B86520B97A
:1043AC005721104B104800F0CFF8C0E90044C0E989
:1043BC000244C0E90444C0E90A44C0E90C44C0E921
:1043CC000E44C0E91044C0E912448461047744628D
:1043DC0031462846BA6D0123BDE8F04100F006B81D
:1043EC0010000020B05F0008C75F0008F0B508B9E6
:1043FC00106888B104460F46204614F8015B17F884
:10440C00016B1EB965B92846156005E0B542F6D1B9
:10441C00002BF0D114600370F0BD1C460CE015B9F4
:10442C000E4614F8013B16F8015BAB42F7D1002B9A
:10443C00F3D0002304F8013C1460EDE7012B2DE9C7
:10444C00F047804601D0242B06D9FFF711FF162325
:10445C0003600020BDE8F0870D46354F284615F85F
:10446C00014BE65D16F00806F8D12D2C2FD1012654
:10447C002C78851C002B57D0102B09D1302C07D150
:10448C00287800F0DF00582849D110236C780235C9
:10449C00002706F1004E0EF1FF3EBEFBF3F9384645
:1044AC0003FB19EAA4F1300CBCF1090F14D86446D3
:1044BC00A34222DD002F1DDB81451BD301D1A24578
:1044CC0018DB012700FB034015F8014BEAE72B2C06
:1044DC0004BF2C78851CCDE7A4F1410CBCF1190F5D
:1044EC0001D8373CE4E7A4F1610CBCF1190F04D8F6
:1044FC00573CDDE74FF0FF37E6E7002F07DA2223C2
:10450C007046C8F80030002AA4D0691E05E006B138
:10451C004042002A9ED0002FF7D111609AE7302438
:10452C00002BB5D10823B3E7302CA9D00A23AFE771
:10453C006160000813460A46014602480068FFF70E
:10454C007DBF00BF100000201FB514461A46094B52
:10455C0005461B68D8684CB1074BCDE90134009176
:10456C002B46064900F00EF800F01CFE044B1C46CE
:10457C00F3E700BF10000020246000083160000841
:10458C005F6000080EB403B5014603AB054853F851
:10459C00042B0068019300F06FFA02B05DF804EB95
:1045AC0003B0704710000020024B0146186800F061
:1045BC006BB800BF1000002038B50546002940D06C
:1045CC0051F8043C0C1F002BB8BFE41801F044F860
:1045DC001C4A136833B9636014602846BDE8384040
:1045EC0001F040B8A34208D9206821188B4201BFC2
:1045FC0019685B6809182160EDE71A465B680BB116
:10460C00A342FAD911685018A0420BD1206801447A
:10461C00501883421160E0D118685B680144116046
:10462C005360DAE702D90C232B60D6E720682118F7
:10463C008B4201BF19685B68091821606360546084
:10464C00CBE738BD7004002070B50E4E0C463168B7
:10465C00054611B900F0D6FC30602146284600F022
:10466C00D1FC431C0AD0C41C24F00304A04207D084
:10467C00211A284600F0C6FC013001D14FF0FF345E
:10468C00204670BD740400202DE9F041CD1C25F0AE
:10469C00030508350C2D38BF0C25002D074601DB12
:1046AC00A94205D90C2300263B603046BDE8F081B9
:1046BC002E4E00F0D1FF33681C4634BB29463846D9
:1046CC00FFF7C2FF431C04464DD134682646002E2A
:1046DC0040D123683146384604EB030800F092FCC5
:1046EC0080453AD1216803356D1A25F0030508354C
:1046FC000C2D38BF0C2538462946FFF7A5FF013095
:10470C002BD023682B4423600EE02268521B1ED44E
:10471C000B2A16D96119A342256018BF596063682A
:10472C0008BF316062514B60384604F10B0600F053
:10473C0099FF26F00706231DF21AB6D09B1BA35037
:10474C00B3E76268A3420CBF32605A60ECE72346C1
:10475C006468B2E734467668B9E70C2338463B60A8
:10476C0000F080FFA1E72560DEE700BF70040020A9
:10477C002DE9F0478E6882469E420C4690461F46B5
:10478C0038D88A8912F4906F32D0256809690133C0
:10479C00A5EB010965694B4405EB450505EBD575A2
:1047AC006D109D4238BF1D46530531D52946FFF784
:1047BC006BFF064650B90C234FF0FF30CAF800309F
:1047CC00A38943F04003A381BDE8F0874A462169E1
:1047DC0000F01AFFA38923F4906343F08003A381B4
:1047EC0026614E4426603E466561A5EB0905A56031
:1047FC00BE4200D93E4632464146206800F012FFC8
:10480C00A36800209B1BA360236833442360DBE771
:10481C002A4600F02DFF06460028E1D150462169BA
:10482C00FFF7CAFEC7E700002DE9F04F98468B89C9
:10483C0007461B060D4614469DB00ED50B6963B991
:10484C004021FFF721FF2860286120B90C233B6031
:10485C004FF0FF30D1E040236B61002309932023FC
:10486C008DF8293030234FF00109CDF80C80DFF89A
:10487C00A4818DF82A3023469A4613F8012B0AB1ED
:10488C00252AF9D1BAEB040B0BD05B4622462946FC
:10489C003846FFF76DFF013000F0AA80099A5A44A0
:1048AC0009929AF80030002B00F0A28000234FF000
:1048BC00FF32CDE905230AF1010A049307938DF821
:1048CC0053301A935446052214F8011B514800F03A
:1048DC008DFE049AD8B9D00644BF20238DF85330EE
:1048EC00110744BF2B238DF853309AF800302A2B34
:1048FC0015D0544600204FF00A0C079A214611F8A7
:10490C00013B303B092B4ED9B0B1079214E0A0EB20
:10491C00080309FA03F31343A2460493D2E7039B5B
:10492C00191D1B680391002BBBBF5B4242F00202B6
:10493C0007930793B8BF049223782E2B0CD163787E
:10494C002A2B35D1039B02341A1D1B680392002BB2
:10495C00B8BF4FF0FF330593DFF8BCA003225046DD
:10496C00217800F043FE40B14023A0EB0A0003FA8B
:10497C0000F0049B01340343049314F8011B06223A
:10498C0026488DF8281000F031FE002838D0244B32
:10499C001BBB039B073323F0070308330393099BCB
:1049AC003344099367E70C4601200CFB0232A5E760
:1049BC0000234FF00A0C194601340593204610F8D9
:1049CC00012B303A092A03D9002BC5D00591C3E736
:1049DC00044601230CFB0121F0E703AB00932A46AC
:1049EC003846104B04A9AFF30080421C0646D6D1C2
:1049FC00AB895B063FF52CAF09981DB0BDE8F08F75
:104A0C0003AB00932A463846064B04A900F0D4F9B0
:104A1C00EBE700BF61610008676100086B6100088B
:104A2C00000000007D470008936810B4013B002B88
:104A3C00936007DA9469A34201DB0A2902D110BC06
:104A4C0000F0F0BA1368581C10601970084610BCBE
:104A5C007047F8B506460F461446D518AC4201D13E
:104A6C00002007E03A46304614F8011BFFF7DCFF44
:104A7C00431CF3D1F8BD00002DE9F04F0D46144650
:104A8C00984606469DB018B183690BB900F0A8FC96
:104A9C00894B9D421BD175686B6ED90705D4AB89C8
:104AAC009A0502D4A86D00F039FDAB891B0701D51E
:104ABC002B69EBB92946304600F006FBC0B16B6E92
:104ACC00DC070ED54FF0FF301DB0BDE8F08F7B4BEF
:104ADC009D4201D1B568DFE7794B9D4208BFF5686F
:104AEC00DAE7AB899805EDD4A86D00F018FDE9E77D
:104AFC000023099320238DF8293030234FF001092E
:104B0C00CDF80C80DFF8BC818DF82A3023469A460C
:104B1C0013F8012B0AB1252AF9D1BAEB040B0BD0EF
:104B2C005B46224629463046FFF793FF013000F0E2
:104B3C00AA80099A5A4409929AF80030002B00F086
:104B4C00A28000234FF0FF32CDE905230AF1010AC0
:104B5C00049307938DF853301A935446052214F896
:104B6C00011B584800F042FD049AD8B9D10644BF45
:104B7C0020238DF85330130744BF2B238DF853306B
:104B8C009AF800302A2B15D0544600204FF00A0C0E
:104B9C00079A214611F8013B303B092B4ED9B0B195
:104BAC00079214E0A0EB080309FA03F31343A2469F
:104BBC000493D2E7039B191D1B680391002BBBBF09
:104BCC005B4242F0020207930793B8BF049223782A
:104BDC002E2B0CD163782A2B35D1039B02341A1D52
:104BEC001B680392002BB8BF4FF0FF330593DFF81F
:104BFC00D8A003225046217800F0F8FC40B14023A5
:104C0C00A0EB0A0003FA00F0049B01340343049365
:104C1C0014F8011B06222D488DF8281000F0E6FC34
:104C2C0000283FD02A4B1BBB039B073323F0070301
:104C3C0008330393099B3B44099367E70C46012017
:104C4C000CFB0232A5E700234FF00A0C1946013485
:104C5C000593204610F8012B303A092A03D9002B72
:104C6C00C5D00591C3E7044601230CFB0121F0E7F5
:104C7C0003AB00932A463046164B04A9AFF30080D1
:104C8C000746781CD6D16B6ED90705D4AB899A052B
:104C9C0002D4A86D00F043FCAB895B063FF512AF64
:104CAC00099811E703AB00932A463046094B04A937
:104CBC0000F082F8E4E700BFB4610008D46100089A
:104CCC009461000861610008676100086B6100086D
:104CDC00000000005F4A00082DE9F047164699468F
:104CEC008A680B6907469342B8BF1346336091F844
:104CFC0043200C46DDF820800AB101333360236871
:104D0C00990642BF336802333360256815F00605F7
:104D1C0006D104F1190AE36832689B1AAB4228DC0D
:104D2C0094F84320131E226818BF012392062DD439
:104D3C004946384604F14302C047013020D023686D
:104D4C00E56803F00603042B18BF002532684FF00A
:104D5C000006A36808BFAD1A226908BF25EAE575ED
:104D6C009342C4BF9B1AED181A34B5421AD10020D5
:104D7C0008E00123524649463846C047013003D16A
:104D8C004FF0FF30BDE8F0870135C4E73020E11863
:104D9C0081F843005A1C94F845102244023382F8DF
:104DAC004310C5E70123224649463846C047013027
:104DBC00E6D00136D9E700002DE9FF470F7E91467A
:104DCC00782F80460C469A460C9D01F1430207D879
:104DDC00622F0AD8002F00F0D980582F00F0A48041
:104DEC0004F1420584F842703AE0A7F16303152BF5
:104DFC00F6D801A151F823F05D4E0008714E000861
:104E0C00ED4D0008ED4D0008ED4D0008ED4D00088E
:104E1C00714E0008ED4D0008ED4D0008ED4D0008F9
:104E2C00ED4D00087F4F0008A14E0008614F0008AF
:104E3C00ED4D0008ED4D0008A14F0008ED4D0008A8
:104E4C00A14E0008ED4D0008ED4D0008694F00081B
:104E5C002B681A1D1B682A6004F1420584F8423045
:104E6C000123A4E020682968060601F104030AD591
:104E7C000E682B60002E03DA2D23764284F8433023
:104E8C000A235E4819E00E6810F0400F2B6018BF23
:104E9C0036B2EFE72B682068191D2960010601D591
:104EAC001E6802E04606FBD51E886F2F0CBF082338
:104EBC000A235248002184F843106568002DA8BFCE
:104ECC002168A560A4BF21F0040121600EB9002D5A
:104EDC004DD01546B6FBF3F103FB1167C75D05F822
:104EEC00017D3746BB420E46F4D9082B0BD1236803
:104EFC00DE0708D5236961689942DEBF302305F8C7
:104F0C00013C05F1FF35521B22614B4621464046C0
:104F1C00CDF800A003AAFFF7DFFE01304CD14FF013
:104F2C00FF3004B0BDE8F087344881F8457029683B
:104F3C00236851F8046B29601D0614D5DF0744BFA4
:104F4C0043F0200323601EB9236823F02003236061
:104F5C001023AFE7236843F020032360782328480D
:104F6C0084F84530E3E7590648BFB6B2E6E7154684
:104F7C00BBE72B682668181D6169286035061B681D
:104F8C0001D5196002E07006FBD519800023154687
:104F9C002361BAE72B6800211A1D2A601D6862681C
:104FAC00284600F023FB08B1401B60606368236156
:104FBC00002384F84330A8E72A4649464046236933
:104FCC00D0470130ABD023689B0713D4E068039B18
:104FDC009842B8BF1846A4E70123324649464046DA
:104FEC00D04701309BD00135E36803995B1AAB4283
:104FFC00F2DCEBE7002504F11906F5E77261000815
:10500C008361000838B50023054D044608462B6023
:10501C00FCF722FF431C02D12B6803B1236038BD7F
:10502C007C040020F8B50E461446054618B1836979
:10503C000BB900F0D5F9214B9C422BD16C68A369BC
:10504C00A360A3891A072FD523696BB32369206842
:10505C00F6B2C01A63693746834204DC21462846FF
:10506C0000F02AF930BBA3680130013BA360236830
:10507C005A1C22601E706369834204D0A389DB072B
:10508C0006D50A2E04D12146284600F015F988B918
:10509C003846F8BD0A4B9C4201D1AC68CFE7094BAE
:1050AC009C4208BFEC68CAE72146284600F00CF881
:1050BC000028CBD04FF0FF37EAE700BFB4610008FF
:1050CC00D461000894610008324B70B51D68064627
:1050DC000C4625B1AB6913B9284600F081F92E4B6B
:1050EC009C420FD16C68A389B4F90C2019072CD4FD
:1050FC00DD0611D40923336042F040034FF0FF303A
:10510C00A3813EE0254B9C4201D1AC68EBE7244BDC
:10511C009C4208BFEC68E6E7580712D5616B41B1B9
:10512C0004F14403994202D03046FFF745FA0023BC
:10513C006363A38923F02403A381002363602369A1
:10514C002360A38943F00803A38123694BB9A38986
:10515C0003F42073B3F5007F03D02146304600F0F2
:10516C0005FAA089B4F90C2010F001030AD0002331
:10517C00A36063695B42A361236943B910F08000AB
:10518C00BAD170BD810758BF6369A360F4E70020F2
:10519C00F7E700BF10000020B4610008D4610008DC
:1051AC0094610008062008B500F0BAFA0120FCF75B
:1051BC00E0FD00008A89F8B5054610070C4657D467
:1051CC004B68002B04DC0B6C002B01DC0020F8BDC1
:1051DC00E66A002EFAD0002312F480522F682B605E
:1051EC0032D0606DA3895A0705D56368C01A636B0A
:1051FC000BB1236CC01A00230246E66A2846216ACA
:10520C00B047431CA38906D129681D292CD8294AEB
:10521C00CA40D60728D5002262602269D9042260D0
:10522C0004D5421C01D12B6803B96065616B2F60FA
:10523C000029CBD004F14403994202D02846FFF751
:10524C00BBF900206063C2E7216A01232846B047FE
:10525C00411CC7D12B68002BC4D01D2B01D0162BA1
:10526C0001D12F60B2E7A38943F04003A381AEE7DD
:10527C000F69002FAAD0930718BF00230E6808BF30
:10528C004B69F61B0F608B60002E9FDD33463A4650
:10529C002846216AD4F828C0E047002806DCA389F8
:1052AC004FF0FF3043F04003A38190E70744361AD8
:1052BC00EAE700BF0100402038B50B6905460C46F3
:1052CC0013B90025284638BD18B183690BB900F015
:1052DC0087F8144B9C421BD16C68B4F90C30002B32
:1052EC00EFD0626ED00704D4990502D4A06D00F003
:1052FC0015F928462146FFF75DFF636E0546DA0770
:10530C00E0D4A3899B05DDD4A06D00F008F9D9E7A2
:10531C00054B9C4201D1AC68DFE7044B9C4208BFB3
:10532C00EC68DAE7B4610008D46100089461000805
:10533C00002310B50446C0E90033C0E90433836090
:10534C0081814366C2818361194608225C30FEF775
:10535C00B9FF054B24626362044BA362044BE36206
:10536C00044B236310BD00BF655700088757000826
:10537C00BF570008E3570008014900F0AFB800BF61
:10538C00C5520008682270B54D1E55430E4605F1F6
:10539C007401FFF779F9044640B10021C0E9001609
:1053AC000C30A06005F16802FEF78CFF204670BD42
:1053BC00014800F0B3B800BF79040020014800F0A8
:1053CC00AEB800BF79040020014800F0A7B800BFB8
:1053DC007A040020014800F0A2B800BF7A04002033
:1053EC0010B50446FFF7F0FFA3691BB1BDE81040F0
:1053FC00FFF7F0BFC4E912332365134B134A1B6844
:10540C00A262A34208BF0123204608BFA36100F09B
:10541C001FF86060204600F01BF8A060204600F0EA
:10542C0017F800220421E0606068FFF781FF012279
:10543C000921A068FFF77CFF02221221E068FFF728
:10544C0077FF0123A361D1E7AC5F00088553000807
:10545C00F8B50746FFF7ACFF1E4B1E68B36913B9CE
:10546C003046FFF7BDFF4836D6E90134013B03D582
:10547C0033680BB33668F7E7B4F90C50D5B9164B53
:10548C0004F15800E360656600F047F8FFF796FFFB
:10549C0008222946C4E90155C4E904552560A561D3
:1054AC0004F15C00FEF70EFFC4E90D55C4E912557A
:1054BC002046F8BD6834D9E704213846FFF762FF6F
:1054CC00044630600028D5D1FFF778FF0C233B60F1
:1054DC00EEE700BFAC5F00080100FFFF2DE9F843C9
:1054EC0006468846002700F14804D4E90195B9F135
:1054FC00010905D52468002CF7D13846BDE8F8839E
:10550C00AB89012B07D9B5F90E30013303D02946ED
:10551C003046C04707436835E9E770477047704726
:10552C0070B50E46B1F90E10144600291D4696B002
:10553C0008DA0022B6F90C302A601A0610D44FF49F
:10554C0080630EE06A4600F06DF90028F1DB019AE9
:10555C0002F47042A2F500535A425A412A60EEE717
:10556C0040230020236016B070BD00008B8973B5FA
:10557C009D0706460C4607D504F1470323602361BB
:10558C000123636102B070BD6A4601ABFFF7C8FF2F
:10559C00009905463046FFF777F848B9B4F90C3056
:1055AC009A05EFD423F0030343F00203A381E3E74E
:1055BC000D4BB362A389206043F08003A381009B51
:1055CC0020616361019B5BB13046B4F90E1000F0B1
:1055DC003BF928B1A38923F0030343F00103A38112
:1055EC00A0890543A581CDE785530008034610B576
:1055FC00C9B202449342184601D1002003E004785A
:10560C0001338C42F6D110BD0A44914200F1FF33B4
:10561C0000D1704710B511F8014B914203F8014FBE
:10562C00F9D110BD884210B501EB020402D98442B5
:10563C00234607D8431EA14208D011F8012B03F8CA
:10564C00012FF8E7014602448A4200D110BD13F83D
:10565C00014D02F8014DF7E70148FFF75FBF00BFAE
:10566C00780400200148FFF75ABF00BF78040020DF
:10567C002DE9F041804614460E4621B91146BDE88D
:10568C00F041FFF701B82AB9FEF796FF25462846E8
:10569C00BDE8F08100F0FAF88442074602D8B4EB7A
:1056AC00500F12D821464046FEF7EEFF0546002863
:1056BC00EDD0BC422246314628BF3A46FFF7A4FF44
:1056CC0031464046FEF778FFE1E73546DFE71F2914
:1056DC0038B504460D4604D9162303604FF0FF304D
:1056EC0038BD426C12B152F821304BB9204600F053
:1056FC0031F82A4601462046BDE8384000F018B87B
:10570C00012B0AD0591C03D1162303600120E7E7B3
:10571C000024284642F8254098470020E0E7000086
:10572C00024B01461868FFF7D2BF00BF10000020E3
:10573C0038B50023064D0446084611462B60FCF78D
:10574C0008FB431C02D12B6803B1236038BD00BF9A
:10575C007C040020FCF7F6BA10B50C46B1F90E101B
:10576C0000F09CF80028ABBF636DA3891B1823F4D1
:10577C008053ACBF6365A38110BD2DE9F0411F467A
:10578C008B890546DB050C46164605D502230022FF
:10579C00B1F90E1000F068F8A389324623F4805357
:1057AC00A38128463B46B4F90E10BDE8F04100F049
:1057BC0017B810B50C46B1F90E1000F055F8431C93
:1057CC00A38915BF606523F4805343F48053A381F0
:1057DC0018BFA38110BDB1F90E1000F013B8000072
:1057EC0038B50446084611460022054D2A601A4673
:1057FC00FCF7E6FA431C02D12B6803B1236038BDD9
:10580C007C04002038B50023054D044608462B6067
:10581C00FCF7F2FA431C02D12B6803B1236038BDAC
:10582C007C04002038B50023064D0446084611467A
:10583C002B60FCF7ECFA431C02D12B6803B12360FC
:10584C0038BD00BF7C04002038B50023054D04464C
:10585C0008462B60FCF7EAFA431C02D12B6803B113
:10586C00236038BD7C04002038B504460846114638
:10587C000022054D2A601A46FCF7E2FA431C02D1BD
:10588C002B6803B1236038BD7C04002051F8043C24
:10589C00181F002BBCBF0B58C018704738B50446F6
:1058AC00084611460022054D2A601A46FCF76BFA91
:1058BC00431C02D12B6803B1236038BD7C0400204B
:1058CC00F8B500BFF8BC08BC9E467047F8B500BFE1
:0858DC00F8BC08BC9E467047B1
:1058E40025730D0A000000002B435041533A000079
:1058F4000A2B43504153206E6F74207265616479A2
:105904002C206D757374206265202730270A0000EF
:105914002B435245473A0000302C31000A2B4352A6
:105924004547206E6F742072656164792C206D7513
:1059340073742062652027302C31270A0000000090
:105944002B4353513A0000002B4353513A2000009B
:105954002D25756442690000257500002B435350C2
:105964004E3A0000200000003A00000025730000B9
:105974002B4342433A0000002C000000536574207E
:1059840025732025730A00004E6F74207265706CB5
:105994007920000041544423313030233B0D0A0068
:1059A4004154480D0A0000004154442B3739383122
:1059B400393535353535313B0D0A00004154410D3B
:1059C4000A00000041542B43434C4B3F0D0A000096
:1059D40041542B435042523D25750A002B435042FB
:1059E400523A00002B435042523A202C000000004F
:1059F4002200000030256C750A0000004154443038
:105A0400256C753B0A0000004449414C2030256C4C
:105A1400750000002020202020202020202020208D
:105A24002020000041524D454400000044495341A8
:105A3400524D4544000000004143204F4E000000F9
:105A44004143204F464600002053454E44494E47AB
:105A54002020534D5320000041542B434D47533DC8
:105A64002230256C75220D0A000000000A00000097
:105A7400256300004C41424952494E540000000045
:105A8400454C4543545249430000000047534D449C
:105A94005F4D494E495F76312E320000202020733D
:105AA40074617274696E67202020000020202070C9
:105AB4006F776572206F6E20202000002073706560
:105AC40065642020636865636B2000002073746143
