:020000040800F2
:1000000000280020212000082D1C0008331C0008B7
:10001000391C00083F1C0008451C000800000000B7
:100020000000000000000000000000004B1C000861
:10003000571C000800000000631C00086F1C00082B
:10004000692000086920000869200008692000086C
:10005000692000086920000869200008692000085C
:10006000692000086920000869200008692000084C
:10007000692000086920000869200008692000083C
:10008000692000086920000869200008692000082C
:10009000692000086920000869200008692000081C
:1000A000692000087D1C00086920000869200008FC
:1000B000692000086920000800000000692000088D
:1000C000692000080000000000000000692000080E
:1000D00000000000911C0008051D00080000000041
:1000E000692000086920000869200008000000005D
:1000F0000000000000000000000000000000000000
:0C01000000000000000000005FF808F1A3
:10010C0010B5054C237833B9044B13B10448AFF345
:10011C0000800123237010BD6C0000200000000043
:10012C00505A000808B5034B1BB103490348AFF301
:10013C00008008BD0000000070000020505A00082C
:10014C00034613F8012B002AFBD1181A013870470B
:10015C0080B483B000AF78607B68002B13D00DE0C7
:10016C007B681B780A2B03D07B681B780D2B02D184
:10017C007B6820221A707B6801337B607B681B785C
:10018C00002BEDD100E000BF0C37BD4680BC7047A2
:10019C0080B5B0B002AF7860002387F8B73007F1B4
:1001AC006C0340220021184604F075FB07F16C002B
:1001BC007B68D34A402104F0F5FA07F16C0318462A
:1001CC00FFF7BEFF03469AB207F16C014FF47A7346
:1001DC00CC4803F043FBC82004F076F907F16C031C
:1001EC0040220021184604F056FB002387F8B63055
:1001FC0057E101F083FE0346002B00F049810023F8
:10020C00A7F8B43014E001F093FE03461946B7F892
:10021C00B4305A1CA7F8B420CAB2B8333B4403F824
:10022C004C2CB7F8B4303F2B08D8012004F04CF913
:10023C0001F064FE0346002BE5D100E000BF07F19E
:10024C006C031846FFF784FF0023C7F8B03007F1A2
:10025C006C03AD49184604F08FFBC7F8B000D7F813
:10026C00B030002B31D007F16C033021184604F06C
:10027C001AFB0346002B40F0E880D7F8B000FFF7DC
:10028C005FFF03469AB24FF47A73D7F8B0109F48C9
:10029C0003F0E4FA4FF47A731E229D499B4803F055
:1002AC00DDFA97F8B730013387F8B7304FF40051C7
:1002BC00984802F043FA642004F006F997F8B73036
:1002CC00312BEED901F0E3FFEBE707F16C03924918
:1002DC00184604F051FBC7F8B000D7F8B030002B2B
:1002EC0031D007F16C038D49184604F045FB0346E9
:1002FC00002B40F0AA80D7F8B000FFF721FF03468F
:10030C009AB24FF47A73D7F8B010804803F0A6FA7B
:10031C004FF47A73202282497C4803F09FFA97F8B5
:10032C00B730013387F8B7304FF40051794802F0F9
:10033C0005FA642004F0C8F897F8B730312BEED9E1
:10034C0001F0A5FFEBE707F16C037649184604F0C2
:10035C0013FBC7F8B000D7F8B030002B2CD007F146
:10036C006C037149184604F0ABFAC7F8B000D7F823
:10037C00B00004F0CDF8034687F8AF3097F8AF30F3
:10038C005B00DBB2C3F1730387F8AE3097F8AE3085
:10039C00664A0721664804F005FA97F8AF301A460A
:1003AC005200134487F8AD3097F8AD30614A042100
:1003BC00614804F0F7F948E007F16C035F4918460F
:1003CC0004F0DAFAC7F8B000D7F8B030002B15D02B
:1003DC0007F16C035A49184604F072FAC7F8B000DA
:1003EC005849002004F06CFAC7F8B000D7F8B030C8
:1003FC00554A0E21554804F0D5F926E007F16C0357
:10040C005349184604F0B8FAC7F8B000D7F8B03022
:10041C00002B1AD007F16C034949184604F050FA26
:10042C00C7F8B0004B49002004F04AFAC7F8B000F6
:10043C004849002004F044FAC7F8B000D7F8B030AF
:10044C00414A0421444804F0ADF90023C7F8B03008
:10045C0007F10C0360220021184604F01CFA07F186
:10046C000C0007F16C0300937B683C4A602104F09C
:10047C0099F907F10C031846FFF762FE03469AB28E
:10048C0007F10C014FF47A73204803F0E7F933E0DD
:10049C004FF4FA7004F018F897F8B630013387F877
:1004AC00B63097F8B6301D2B7FF6A3AE4FF47A73A7
:1004BC000A222B49154803F0D1F97868FFF740FE62
:1004CC0003469AB24FF47A737968104803F0C6F970
:1004DC0097F8B730013387F8B7304FF400510D4817
:1004EC0002F02CF9642003F0EFFF97F8B730312BB2
:1004FC00EED901F0CCFEEBE7B837BD4680BD00BFAE
:10050C00685A0008D8000020705A0008200100200A
:10051C00785A000800100140985A0008A05A0008A8
:10052C00A45A0008C85A0008D05A0008D85A000823
:10053C006C010020E05A000888010020E45A0008F1
:10054C00EC5A0008F05A0008F45A00087401002014
:10055C00F85A0008005B000884010020045B0008C6
:10056C00105B000880B584B000AF0A4A3B1D07CA77
:10057C0083E807003B1D1846FFF7E2FD03469AB2DD
:10058C00391D4FF47A73044803F068F900BF103733
:10059C00BD4680BD1C5B0008D800002080B582B031
:1005AC0000AF0B4A3B4692E80300186004331980F5
:1005BC003B461846FFF7C4FD03469AB239464FF442
:1005CC007A73044803F04AF900BF0837BD4680BD72
:1005DC00285B0008D8000020B0B586B000AF0D4BEA
:1005EC003C1D1D460FCD0FC42B681A4622800234C9
:1005FC001B0C23703B1D1846FFF7A2FD03469AB255
:10060C00391D4FF47A73044803F028F900BF1837EA
:10061C00BD46B0BD305B0008D800002080B584B06A
:10062C0000AF0C4A3B1D07CA03C31A800233120CDD
:10063C001A703B1D1846FFF783FD03469AB2391D0D
:10064C004FF47A73044803F009F900BF1037BD4624
:10065C0080BD00BF4C5B0008D800002080B596B070
:10066C0000AF5B4B01221A70A9E0594B1B7807F1C4
:10067C004400584A0B2104F095F807F1440318463E
:10068C00FFF75EFD03469AB207F144014FF47A730B
:10069C00514803F0E3F807F144031846FFF750FD07
:1006AC0003469AB207F144014FF47A734B4803F0B6
:1006BC00D5F8C82003F008FF3B1D40220021184646
:1006CC0004F0E9F8002387F857306EE001F016FCCF
:1006DC000346002B64D00023A7F8543014E001F03B
:1006EC0027FC03461946B7F854305A1CA7F8542077
:1006FC00CAB258333B4403F8542CB7F854303F2B50
:10070C0008D8012003F0E0FE01F0F8FB0346002BB3
:10071C00E5D100E000BF3B1D1846FFF719FD002393
:10072C003B653B1D2E49184604F026F938653B6D98
:10073C00002B32D03B1D2B49184604F0C1F838650C
:10074C002949002004F0BCF83865386D03F0E0FE50
:10075C0003461A46254B1A601D4B1B781946234B32
:10076C001B68234A42F82130204B1B6807F14400D8
:10077C00204A0B2104F016F807F144031846FFF742
:10078C00DFFC03469AB207F144014FF47A73134825
:10079C0003F064F800233B6502E000233B6513E0A3
:1007AC0097F85730013387F8573097F857301D2B8F
:1007BC008CD9074B1B780133DAB2054B1A70044BFA
:1007CC001B78092B7FF651AF5837BD4680BD00BF53
:1007DC008C000020585B0008D8000020200100206D
:1007EC00645B00086C5B0008785B000888000020E4
:1007FC008C0100207C5B000880B588B000AF012321
:10080C00FB6153E00123BB6147E02C4ABB6952F802
:10081C002330381D2A4A122103F0C4FF3B1D184611
:10082C00FFF78EFC03469AB2391D4FF47A732548B4
:10083C0003F014F83B1D1846FFF782FC03469AB2EE
:10084C00391D4FF47A73204803F008F8012001F0A9
:10085C0047F81A4ABB6952F82330381D1B4A0F213E
:10086C0003F0A0FF3B1D02220021184601F092F874
:10087C0044F6206003F028FE002001F031F802223B
:10088C000021134801F086F8FFF788FE4FF4FA7048
:10089C0003F01AFEBB690133BB610E4B1B781A4681
:1008AC00BB699342B1DBFB690133FB61FB69032B31
:1008BC00A8DD00BF00BF2037BD4680BD8C010020E5
:1008CC00845B0008D800002020010020905B000809
:1008DC009C5B00088C00002080B500AF4FF40041F9
:1008EC002D4800F0DFFE4FF480412B4800F0EEFE67
:1008FC004FF40051284800F0FDFE4FF4805126487B
:10090C0000F00CFF4FF40061234800F01BFF00F0D7
:10091C00B1FF01224FF40051204801F0F7FE0222F2
:10092C0012211F4801F036F8032212211D4801F054
:10093C0031F8052200211C4801F02CF84FF4FA6024
:10094C0003F0C2FD01F046F800221221144801F018
:10095C0021F801221221134801F01CF8012000F0AB
:10096C00BFFF02220021114801F014F84FF4FA7075
:10097C0003F0AAFD022200210D4801F00BF8012220
:10098C004FF480710B4801F0C1FE47F2305003F078
:10099C009BFD00BF80BD00BF000C0140001001405A
:1009AC00FC5B0008085C0008145C0008245C000870
:1009BC00345C00080008014080B500AF00F0CAF8B4
:1009CC0002220021274800F0E5FF4FF4FA7003F0F3
:1009DC007BFD02220021244800F0DCFF4FF4FA706A
:1009EC0003F072FD2148FFF7D3FB022200212048BF
:1009FC0000F0D0FF4FF4FA7003F066FD1D48FFF7CE
:100A0C00C7FB022200211C4800F0C4FF4FF4FA700F
:100A1C0003F05AFD1948FFF7BBFB1948FFF7B8FB69
:100A2C001848FFF7B5FB1848FFF7B2FB1748FFF75C
:100A3C00AFFB1748FFF7ACFB1648FFF7A9FB1648AE
:100A4C00FFF7A6FB1548FFF7A3FB1548FFF7A0FB24
:100A5C001448FFF79DFB1448FFF79AFBFFF7FEFDC8
:100A6C0000BF80BD445C0008545C0008645C000856
:100A7C006C5C00087C5C0008885C0008985C0008D2
:100A8C00A45C0008AC5C0008B45C0008C05C000806
:100A9C00CC5C0008DC5C0008EC5C0008005D000825
:100AAC00085D00080C5D0008145D000880B485B07A
:100ABC0000AF78600023FB607B68002B2FD00023F5
:100ACC00FB727B68FB6022E0FB7A012B0BD87B6806
:100ADC001B780A2B03D07B681B780D2B03D1FB7A78
:100AEC000133FB7210E07B681B780A2B03D07B6808
:100AFC001B780D2B02D17B6820221A70FB685A1CC4
:100B0C00FA607A6812781A707B6801337B607B68B4
:100B1C001B78002BD8D1FB6800221A7000E000BFB4
:100B2C001437BD4680BC704780B483B000AF78608A
:100B3C007B681B68054A934202D1054B01221A704F
:100B4C0000BF0C37BD4680BC704700BF002C014075
:100B5C006901002080B598B000AF002387F85F30A2
:100B6C00C2E00023BB6597F85F30002B03D14FF434
:100B7C001663BB652EE097F85F30012B03D14FF461
:100B8C009653BB6526E097F85F30022B03D14FF4E8
:100B9C001653BB651EE097F85F30032B03D14FF45F
:100BAC009643BB6516E097F85F30042B03D14FF4E6
:100BBC001643BB650EE097F85F30052B03D14FF45D
:100BCC006143BB6506E097F85F30062B02D14FF40A
:100BDC00E133BB65494B4A4A1A60484ABB6D5360C6
:100BEC00464B00229A60454B0022DA60434B0022B0
:100BFC001A61424B0C225A61404B00229A613F4BC6
:100C0C000022DA613D4802F0D9FD0346002B01D0E9
:100C1C0000F042FD07F1440300221A605A609A600A
:100C2C00DA604FF47A7304223649344802F016FE27
:100C3C004FF4967003F048FC01F060F90346002B6A
:100C4C004DD00023A7F8563014E001F071F903469B
:100C5C001946B7F856305A1CA7F85620CAB260335A
:100C6C003B4403F81C2CB7F856300F2B08D8012046
:100C7C0003F02AFC01F042F90346002BE5D100E019
:100C8C0000BF07F144032049184603F075FE0346E4
:100C9C00002B24D03B1D40220021184603F0FBFD05
:100CAC00164B5B68381D194A402103F07BFD3B1D38
:100CBC001846FFF745FA03469AB2391D64231448C7
:100CCC0002F0CCFD4FF47A730E2212490B4802F05D
:100CDC00C5FDFA2003F0F8FB00F004FC0AE097F8DD
:100CEC005F30013387F85F3097F85F30062B7FF663
:100CFC0038AF00BF00BF6037BD4680BDD8000020B4
:100D0C0000380140205D0008285D00082C5D0008BB
:100D1C0020010020545D000880B5AEB002AF03F096
:100D2C0071FB00F047FB00F031FC00F089FB00F098
:100D3C00D9FB00F001FCFFF7CFFDCC4B1B68DA6848
:100D4C00CA4B1B6842F02002DA60C94B1B68DA6898
:100D5C00C74B1B6842F02002DA60FFF72DFE07F14B
:100D6C00600340220021184603F095FD07F1200393
:100D7C0040220021184603F08EFD0023C7F8AC304A
:100D8C0039E0BC4AD7F8AC3052F82330002B2DD0C8
:100D9C00B84AD7F8AC3052F8233007F12000009352
:100DAC00D7F8AC30B44A0F2103F0FCFC07F1200358
:100DBC001846FFF7C5F903469AB207F120014FF424
:100DCC007A73AB4802F04AFD4FF47A730122AB49B7
:100DDC00A74802F043FD07F1200302220021184628
:100DEC0000F0D8FD4FF47A7003F06EFBD7F8AC30FE
:100DFC000133C7F8AC30D7F8AC30092BC1DD00F0AB
:100E0C00E9FD002000F06CFD00224FF400519C48DD
:100E1C0001F07CFC9B4802F075F99B4B1B78DBB214
:100E2C00012B16D101224FF40051954801F06EFCB4
:100E3C00944802F0B3F9FFF7DFFC934B00221A70D1
:100E4C00904802F05FF900224FF400518C4801F0F9
:100E5C005DFC8E4B1B78DBB2012B40F08E808B4BF4
:100E6C0000221A7000F0B6FD01224FF400518448A4
:100E7C0001F04CFC8648FFF78BF98648FFF788F9A0
:100E8C0000221221844800F085FD012212218348A2
:100E9C0000F080FD03220021814800F07BFD04223C
:100EAC000021804800F076FD04223C217E4800F0B1
:100EBC0071FD052200217D4800F06CFD05223C21CE
:100ECC007B4800F067FD7B4B1B78DBB2013BDAB251
:100EDC00784B1A70774B1B78DBB2002B47D1754BD4
:100EEC000A221A70012000F0FBFC02220021724839
:100EFC0000F050FD4FF4FA7003F0E6FA6F48FFF77C
:100F0C0047F9022200216E4800F044FD4FF4FA70BC
:100F1C0003F0DAFA6B48FFF73BF900F05BFD0020B9
:100F2C0000F0DEFCFFF77AFB002212215A4800F099
:100F3C0031FD01221221594800F02CFD0322002121
:100F4C00574800F027FD04220021564800F022FDEE
:100F5C0004223C21544800F01DFD05220021534879
:100F6C0000F018FD05223C21514800F013FD002231
:100F7C004FF40051424801F0C9FB00F0BFFF03469B
:100F8C00002B00F0B1810023A7F8AA30012387F8C9
:100F9C00A93007F1600340220021184603F07BFCC6
:100FAC00322003F091FA14E000F0C2FF0346194618
:100FBC00B7F8AA305A1CA7F8AA20CAB2B0333B44DF
:100FCC0003F8502CB7F8AA303F2B08D8012003F0B7
:100FDC007BFA00F093FF0346002BE5D100E000BF45
:100FEC0007F160031846FFF761FD07F1600336490E
:100FFC00184603F0C1FC0346002B40F05B8107F15F
:10100C0060033249184603F0B7FC0346002B00F08E
:10101C008A8007F160032E49184603F0ADFC0346A5
:10102C00002B78D04FF47A730E222A49104802F024
:10103C0015FC012000F054FC02220021264800F08F
:10104C00A9FC002000F04CFC07F160032349184672
:10105C0003F092FC0346002B44D04FF47A730C221D
:10106C001F49034802F0FAFB24E100BFD80000201E
:10107C00200100208C010020645D0008705D0008D8
:10108C000010014090000020680100206901002040
:10109C00745D00087C5D0008845D0008905D0008AC
:1010AC00740100209C5D000888010020AC5D0008E4
:1010BC008401002000000020BC5D0008CC5D00080D
:1010CC00D45D0008E45D0008F05D0008F85D0008E0
:1010DC00005E00080C5E00081C5E00082C5E000818
:1010EC00345E000807F16003A449184603F044FC81
:1010FC000346002B02D0FFF76FFADBE007F1600329
:10110C009F49184603F038FC0346002B00F0D280B0
:10111C00FFF728FACEE04FF47A73122299499A48D5
:10112C0002F09CFBC6E007F160039849184603F0F7
:10113C0023FC0346002B0BD00023C7F8A03007F18B
:10114C0060039349184603F017FCC7F8A000B1E000
:10115C0007F160038F49184603F00EFC0346002B81
:10116C0023D007F160033021184603F09CFB0346A3
:10117C00002B07D04FF47A730E228749824802F075
:10118C006DFB0FE007F160033121184603F08BFB78
:10119C000346002B06D04FF47A730E227F497A480F
:1011AC0002F05CFBFFF7FAF984E007F160037C497D
:1011BC00184603F0E1FB0346002B7BD007F16003DC
:1011CC001846FEF7C5FF3B4620220021184603F0C7
:1011DC0062FB002387F8A83050E097F8A830B033B2
:1011EC003B4413F8503C222B43D197F8A8300133E1
:1011FC0087F8A830002387F8A73035E097F8A83097
:10120C00B0333B4413F8503C2B2B08D197F8A83043
:10121C00B0333B44002203F8502C00BF32E097F867
:10122C00A830B0333B4413F8503C2C2B06D197F824
:10123C00A830B0333B44202203F8502C97F8A82058
:10124C0097F8A730B0323A4412F8502CB0333B44E4
:10125C0003F8B02C97F8A830013387F8A83097F82A
:10126C00A730013387F8A73097F8A730132BC5D9CF
:10127C0008E097F8A830013387F8A83097F8A83021
:10128C003F2BAAD93B4607F12000464A402103F0E8
:10129C0089FA07F120031846FEF752FF03469AB26B
:1012AC0007F120014FF47A73374802F0D7FA002384
:1012BC0087F8A93097F8A930002B15D007F16003F7
:1012CC0007F12000384A402103F06CFA07F12003A3
:1012DC001846FEF735FF03469AB207F120014FF48A
:1012EC007A73294802F0BAFA00F04EFE0346002B3E
:1012FC003FF493AD0023A7F8A43007F1600340221C
:10130C000021184603F0C7FA14E000F057FE03461C
:10131C001946B7F8A4305A1CA7F8A420CAB2B033A7
:10132C003B4403F8502CB7F8A4303F2B08D80120CD
:10133C0003F0CAF800F028FE0346002BE5D100E0CC
:10134C0000BF07F160031846FFF7B0FB07F160031D
:10135C0007F12000154A402103F024FA07F120037D
:10136C001846FEF7EDFE03469AB207F120014FF442
:10137C007A730F4802F072FA4FE500BF445E000822
:10138C004C5E0008545E000820010020685E0008D6
:10139C00705E0008785E0008805E0008905E0008B1
:1013AC00A05E0008A85E0008B85E0008BC5E0008DD
:1013BC00D800002080B590B000AF07F118032822A8
:1013CC000021184603F067FA3B1D00221A605A6090
:1013DC009A60DA601A610123BB614FF48033FB61C0
:1013EC0000233B620123BB6202237B634FF48033F7
:1013FC00BB634FF4E013FB6307F11803184601F0CD
:10140C00B7F90346002B01D000F046F90F237B609F
:10141C000223BB600023FB604FF480633B6100231D
:10142C007B613B1D0221184601F024FC0346002B76
:10143C0001D000F031F900BF4037BD4680BD00003F
:10144C0080B586B000AF07F1080300221A605A601D
:10145C009A60DA603B4600221A605A601F4B204AA1
:10146C001A601E4B4FF6FF725A601C4B00229A609A
:10147C001A4B4FF6FF72DA60184B00221A61174BA9
:10148C0000225A61154B00229A61144801F0EAFDC2
:10149C000346002B01D000F0FFF84FF48053BB60E3
:1014AC0007F1080319460D4801F0AEFF0346002B67
:1014BC0001D000F0F1F800233B6000237B603B4639
:1014CC001946064801F064FD0346002B01D000F0DC
:1014DC00E3F800BF1837BD4680BD00BF9000002068
:1014EC00002C014080B500AF114B124A1A60104B12
:1014FC004FF461425A600E4B00229A600C4B002252
:10150C00DA600B4B00221A61094B0C225A61084B12
:10151C0000229A61064B0022DA61054802F04EF96E
:10152C000346002B01D000F0B7F800BF80BD00BF10
:10153C00D80000200038014080B500AF114B124A92
:10154C001A60104B4FF461425A600E4B00229A60A5
:10155C000C4B0022DA600B4B00221A61094B0C2257
:10156C005A61084B00229A61064B0022DA61054849
:10157C0002F024F90346002B01D000F08DF800BFD7
:10158C0080BD00BF200100200044004080B588B021
:10159C0000AF07F1100300221A605A609A60DA60FB
:1015AC00394B9B69384A43F010039361364B9B6966
:1015BC0003F01003FB60FB68334B9B69324A43F02A
:1015CC0020039361304B9B6903F02003BB60BB6825
:1015DC002D4B9B692C4A43F0040393612A4B9B6966
:1015EC0003F004037B607B68274B9B69264A43F01E
:1015FC0008039361244B9B6903F008033B603B6831
:10160C0000224FF40051214801F080F800224FF4E1
:10161C0078411F4801F07AF800224FF480711D4880
:10162C0001F074F84FF400533B6101237B610023FC
:10163C00BB610223FB6107F110031946134800F04C
:10164C00E9FE4FF478433B6101237B610023BB61CE
:10165C000223FB6107F1100319460D4800F0DAFE76
:10166C004FF480733B6101237B610023BB61022338
:10167C00FB6107F110031946064800F0CBFE00BFD2
:10168C002037BD4680BD00BF001002400010014055
:10169C00000C01400008014080B400AF72B600BFDE
:1016AC00FEE7000080B483B000AF78600B467B800F
:1016BC00054A7B681360044A7B88938000BF0C3713
:1016CC00BD4680BC704700BFB003002080B483B01F
:1016DC0000AF78600B467B80054A7B689360044AB8
:1016EC007B88938100BF0C37BD4680BC704700BF20
:1016FC00B003002080B483B000AF78600B467B80D1
:10170C00054A7B681361044A7B88938200BF0C37BF
:10171C00BD4680BC704700BFB003002080B483B0CE
:10172C0000AF78600B467B80054A7B689361044A66
:10173C007B88938300BF0C37BD4680BC704700BFCD
:10174C00B003002080B483B000AF78600B467B8080
:10175C00054A7B681362044A7B88938400BF0C376C
:10176C00BD4680BC704700BFB003002080B584B07C
:10177C0000AF0346FB710023FB7326E0174B9869FF
:10178C00164B998BFA79FB7BC3F1070342FA03F3EF
:10179C0003F00103002B14BF01230023DBB21A4614
:1017AC0000F0B4FF0D4B1B6A0C4A918C01221846B9
:1017BC0000F0ACFF094B1B6A084A918C00221846BA
:1017CC0000F0A4FFFB7B0133FB73FB7B072BD5D90C
:1017DC0000BF00BF1037BD4680BD00BFB003002066
:1017EC0080B582B000AF03460A46FB711346BB714D
:1017FC00BB79002B1CD11E4B1B691D4A918A002200
:10180C00184600F083FF1A4B9B68194A91890022F5
:10181C00184600F07BFFFB791846FFF7A7FF144B27
:10182C009B68134A91890122184600F06FFF1BE058
:10183C000F4B1B690E4A918A0122184600F066FF75
:10184C000B4B9B680A4A91890022184600F05EFFF8
:10185C00FB791846FFF78AFF054B9B68044A918970
:10186C000122184600F052FF00BF0837BD4680BD6C
:10187C00B003002080B500AF174B1B68164A918847
:10188C000022184600F042FF134B1B68124A918845
:10189C000122184600F03AFF00212120FFF7A0FF9B
:1018AC000021B820FFF79CFF00210420FFF798FFD0
:1018BC0000211420FFF794FF00212020FFF790FF58
:1018CC0000210C20FFF78CFF00F084F8034B002262
:1018DC0083F8F82100BF80BDB0030020B4010020C4
:1018EC0080B483B000AF0346FB71FB79002B04D0AE
:1018FC00064B012283F8F82103E0044B002283F805
:10190C00F82100BF0C37BD4680BC7047B4010020E5
:10191C0080B584B000AF0346FB710023FB602DE063
:10192C001A4B93F8F83183F00103DBB2002B10D083
:10193C00FB79A3F12002164913465B0013445B00AC
:10194C00CA18FB6813441B7801211846FFF748FF9F
:10195C0011E0FB79A3F120020D4913465B001344FF
:10196C005B00CA18FB6813441B78DB43DBB2012114
:10197C001846FFF735FFFB680133FB60FB68052B4E
:10198C00CEDD00BF00BF1037BD4680BDB4010020C6
:10199C00C45E000880B582B000AF78600B46FB7067
:1019AC001346BB70BA78FB781146184600F030F835
:1019BC0006E07B685A1C7A601B781846FFF7A8FF74
:1019CC007B681B78002BF4D100BF00BF0837BD46E5
:1019DC0080BD000080B582B000AF00237B600BE0BF
:1019EC0001210020FFF7FCFE084A7B68134400220B
:1019FC001A707B6801337B607B68B3F5FC7FEFDB8F
:101A0C0000BF00BF0837BD4680BD00BFB401002039
:101A1C0080B582B000AF03460A46FB711346BB711A
:101A2C00FB7963F07F03DBB200211846FFF7D8FE89
:101A3C00BB7943F04003DBB200211846FFF7D0FE20
:101A4C0000BF0837BD4680BD80B485B000AF154BD4
:101A5C009B69144A43F001039361124B9B6903F099
:101A6C000103BB60BB680F4BDB690E4A43F080532C
:101A7C00D3610C4BDB6903F080537B607B680A4BB2
:101A8C005B68FB60FB6823F0E063FB60FB6843F082
:101A9C000073FB60044AFB68536000BF1437BD46FB
:101AAC0080BC7047001002400000014080B584B03B
:101ABC0000AF78607B681B680D4A934213D10D4BC5
:101ACC009B690C4A43F4006393610A4B9B6903F4D2
:101ADC000063FB60FB6800220021192000F0ADFBC5
:101AEC00192000F0C6FB00BF1037BD4680BD00BFFB
:101AFC00002C01400010024080B58AB000AF786025
:101B0C0007F1180300221A605A609A60DA607B6849
:101B1C001B683F4A93423AD13E4B9B693D4A43F482
:101B2C00804393613B4B9B6903F480437B617B69EE
:101B3C00384B9B69374A43F004039361354B9B69DF
:101B4C0003F004033B613B694FF40073BB61022358
:101B5C00FB6103237B6207F1180319462E4800F042
:101B6C0059FC4FF48063BB610023FB6100233B6293
:101B7C0007F118031946284800F04CFC00220021FC
:101B8C00252000F05AFB252000F073FB3CE07B681D
:101B9C001B68224A934237D11E4BDB691D4A43F422
:101BAC000033D3611B4BDB6903F40033FB60FB6830
:101BBC00184B9B69174A43F004039361154B9B69BF
:101BCC0003F00403BB60BB680423BB610223FB610D
:101BDC0003237B6207F1180319460F4800F01AFC27
:101BEC000823BB610023FB6100233B6207F1180350
:101BFC001946094800F00EFC00220021262000F0B6
:101C0C001CFB262000F035FB00BF2837BD4680BDED
:101C1C000038014000100240000801400044004020
:101C2C0080B400AFFEE780B400AFFEE780B400AF35
:101C3C00FEE780B400AFFEE780B400AFFEE780B4EF
:101C4C0000AF00BFBD4680BC704780B400AF00BF82
:101C5C00BD4680BC704780B400AF00BFBD4680BCA1
:101C6C00704780B500AF02F013FC00BF80BD0000D0
:101C7C0080B500AF024801F0BFFA00BF80BD00BFC5
:101C8C009000002080B483B000AF174B1B681B681A
:101C9C0003F02003002B22D0134B1B68DB6803F0EE
:101CAC002003002B1BD0104B1B685B68FB710F4B88
:101CBC001B78DBB20133DBB203F03F03BB710C4B7F
:101CCC001B78DBB2BA799A4209D0084B1B78DBB28D
:101CDC001946084AFB795354044ABB79137000BF68
:101CEC000C37BD4680BC7047D8000020DC030020B8
:101CFC00DD030020E003002080B582B000AF184B5C
:101D0C001B681B6803F02003002B22D0144B1B68AC
:101D1C00DB6803F02003002B1BD0114B1B685B68A6
:101D2C00FB71104B1B78DBB20133DBB203F03F03CA
:101D3C00BB710D4B1B78DBB2BA799A4209D0094BB7
:101D4C001B78DBB21946094AFB795354054ABB7917
:101D5C001370034801F006FE0837BD4680BD00BF76
:101D6C002001002020040020210400202404002055
:101D7C0080B400AF01231846BD4680BC704780B5C7
:101D8C0082B000AF7860396002F052FE0346162232
:101D9C001A604FF0FF3318460837BD4680BD80B53A
:101DAC0082B000AF78604FF0FF317868FFF7E7FF43
:101DBC00FEE780B586B000AFF860B9607A600023AA
:101DCC007B610AE0AFF300800146BB685A1CBA6025
:101DDC00CAB21A707B6901337B617A697B689A425B
:101DEC00F0DB7B6818461837BD4680BD80B586B0E1
:101DFC0000AFF860B9607A6000237B6109E0BB68D2
:101E0C005A1CBA601B781846AFF300807B6901330B
:101E1C007B617A697B689A42F1DB7B6818461837DC
:101E2C00BD4680BD80B483B000AF78604FF0FF3307
:101E3C0018460C37BD4680BC704780B483B000AFE9
:101E4C00786039603B684FF400525A6000231846A2
:101E5C000C37BD4680BC704780B483B000AF78604F
:101E6C00012318460C37BD4680BC704780B485B042
:101E7C0000AFF860B9607A60002318461437BD468D
:101E8C0080BC704780B586B000AF7860144A154BA3
:101E9C00D31A7B617B693B61134B1B68002B02D10E
:101EAC00114B124A1A60104B1A687B6813443A693A
:101EBC009A4207D202F0BCFD03460C221A604FF086
:101ECC00FF3309E0084B1B68FB60074B1A687B6803
:101EDC001344054A1360FB6818461837BD4680BD8D
:101EEC000028002000040000D8030020B8050020C2
:101EFC0080B400AF00BFBD4680BC704780B400AF5B
:101F0C00094B1B78DBB21A46084B1B78DBB2D31A91
:101F1C009BB240339BB21BB203F03F031BB218467B
:101F2C00BD4680BC704700BFDC030020DD030020F1
:101F3C0080B483B000AF114B1B78DAB2104B1B7816
:101F4C00DBB29A4202D14FF0FF3312E00C4B1B78FC
:101F5C00DBB21A460B4B9B5CFB71094B1B78DBB25B
:101F6C000133DBB203F03F03DAB2054B1A70FB7995
:101F7C001BB218460C37BD4680BC7047DC030020F2
:101F8C00DD030020E003002080B400AF094B1B7878
:101F9C00DBB21A46084B1B78DBB2D31A9BB2403328
:101FAC009BB21BB203F03F031BB21846BD4680BC6C
:101FBC00704700BF200400202104002080B483B0AF
:101FCC0000AF114B1B78DAB2104B1B78DBB29A4284
:101FDC0002D14FF0FF3312E00C4B1B78DBB21A46E8
:101FEC000B4B9B5CFB71094B1B78DBB20133DBB2F7
:101FFC0003F03F03DAB2054B1A70FB791BB218469B
:10200C000C37BD4680BC7047200400202104002002
:10201C0024040020FFF76CFF0B480C490C4A0023EA
:10202C0002E0D458C4500433C4188C42F9D3094A82
:10203C00094C002301E013600432A242FBD302F0EE
:10204C00FDFCFEF769FE7047000000206C000020CC
:10205C00206300086C000020B4050020FEE700009F
:10206C0080B485B000AF78607B6803F00703FB6039
:10207C000C4BDB68BB60BA684FF6FF031340BB60C8
:10208C00FB681A02BB68134343F0BF6343F400338D
:10209C00BB60044ABB68D36000BF1437BD4680BC2C
:1020AC00704700BF00ED00E080B400AF044BDB686C
:1020BC001B0A03F007031846BD4680BC704700BFDF
:1020CC0000ED00E080B483B000AF0346FB7197F9DC
:1020DC000730002B0BDBFB7903F01F02064997F945
:1020EC0007305B09012000FA02F241F8232000BFFF
:1020FC000C37BD4680BC704700E100E080B483B073
:10210C0000AF03463960FB7197F90730002B0ADBEF
:10211C003B68DAB20C4997F907301201D2B20B4482
:10212C0083F800230AE03B68DAB20849FB7903F034
:10213C000F03043B1201D2B20B441A7600BF0C37CA
:10214C00BD4680BC704700BF00E100E000ED00E040
:10215C0080B489B000AFF860B9607A60FB6803F0B6
:10216C000703FB61FB69C3F10703042B28BF04239E
:10217C00BB61FB690433062B02D9FB69033B00E00E
:10218C0000237B614FF0FF32BB6902FA03F3DA43A1
:10219C00BB681A407B699A404FF0FF317B6901FAAA
:1021AC0003F3D9437B680B40134318462437BD46D1
:1021BC0080BC704780B400AFBFF34F8F00BF064B9D
:1021CC00DB6803F4E0620449044B1343CB60BFF3B8
:1021DC004F8F00BF00BFFDE700ED00E00400FA05E3
:1021EC0080B582B000AF78607B68013BB3F1807F33
:1021FC0001D301230FE00A4A7B68013B53600F2196
:10220C004FF0FF30FFF77AFF054B00229A60044B2A
:10221C0007221A60002318460837BD4680BD00BF50
:10222C0010E000E080B582B000AF78607868FFF70E
:10223C0017FF00BF0837BD4680BD80B586B000AF24
:10224C000346B9607A60FB7300237B61FFF72CFFB8
:10225C0078617A68B9687869FFF77AFF024697F96E
:10226C000F3011461846FFF749FF00BF1837BD461F
:10227C0080BD80B582B000AF0346FB7197F9073083
:10228C001846FFF71FFF00BF0837BD4680BD80B55D
:10229C0000AFFFF78FFF80B582B000AF7860786831
:1022AC00FFF79EFF034618460837BD4680BD80B435
:1022BC0085B000AF78600023FB737B6893F8213006
:1022CC00DBB2022B08D07B6804229A637B68002265
:1022DC0083F82020012320E07B681B681A687B6848
:1022EC001B6822F00E021A607B681B681A687B68F8
:1022FC001B6822F001021A607B681A6C7B68DB6B2E
:10230C00012101FA02F25A607B68012283F8212034
:10231C007B68002283F82020FB7B18461437BD46CF
:10232C0080BC704780B584B000AF78600023FB732D
:10233C007B6893F82130DBB2022B05D07B6804223A
:10234C009A630123FB7351E07B681B681A687B68F6
:10235C001B6822F00E021A607B681B681A687B6887
:10236C001B6822F001021A607B681B68224A9342A8
:10237C0029D07B681B68214A934222D07B681B685A
:10238C001F4A93421AD07B681B681E4A934212D094
:10239C007B681B681C4A93420AD07B681B681B4AEB
:1023AC00934202D14FF480130EE04FF080730BE098
:1023BC004FF4803308E04FF4805305E04FF4807302
:1023CC0002E0102300E00123114A53607B680122D4
:1023DC0083F821207B68002283F820207B685B6BCC
:1023EC00002B03D07B685B6B78689847FB7B1846A7
:1023FC001037BD4680BD00BF080002401C000240E3
:10240C003000024044000240580002406C00024080
:10241C000000024080B48BB000AF786039600023BC
:10242C007B6200233B6261E101227B6A02FA03F3C7
:10243C00FB613B681B68FA691340BB61BA69FB69B5
:10244C009A4240F050813B685B68974A93425ED059
:10245C00954A934275D8954A934258D0934A9342E1
:10246C006FD8934A934252D0914A934269D8914A79
:10247C0093424CD08F4A934263D88F4A934246D0B2
:10248C008D4A93425DD8122B2AD8122B59D801A20F
:10249C0052F823F01B250008F52400080725000836
:1024AC00492500084F2500084F2500084F25000836
:1024BC004F2500084F2500084F2500084F25000820
:1024CC004F2500084F2500084F2500084F25000810
:1024DC004F2500084F250008FD2400081125000891
:1024EC00764A934213D02CE03B68DB683B6229E0D0
:1024FC003B68DB6804333B6224E03B68DB680833F1
:10250C003B621FE03B68DB680C333B621AE03B68C4
:10251C009B68002B02D104233B6213E03B689B6851
:10252C00012B05D108233B627B68FA691A6109E02B
:10253C0008233B627B68FA695A6103E000233B6223
:10254C0000E000BFBB69FF2B01D87B6801E07B6812
:10255C0004337B61BB69FF2B02D87B6A9B0002E0D2
:10256C007B6A083B9B003B617B691A680F213B69C6
:10257C0001FA03F3DB431A40396A3B6901FA03F3AE
:10258C001A437B691A603B685B6803F08053002B2D
:10259C0000F0A9804A4B9B69494A43F001039361BF
:1025AC00474B9B6903F00103BB60BB68454A7B6AE0
:1025BC009B08023352F82330FB607B6A03F0030361
:1025CC009B000F2202FA03F3DB43FA681340FB6013
:1025DC007B683D4A93420DD07B683C4A934207D0BE
:1025EC007B683B4A934201D1022304E0032302E0BF
:1025FC00012300E000237A6A02F003029200934068
:10260C00FA681343FB602F497B6A9B080233FA6814
:10261C0041F823203B685B6803F48013002B06D041
:10262C002C4B9A682B49BB6913438B6006E0294BF2
:10263C009A68BB69DB43274913408B603B685B6836
:10264C0003F40013002B06D0224BDA682149BB6936
:10265C001343CB6006E01F4BDA68BB69DB431D49B3
:10266C001340CB603B685B6803F40033002B06D04F
:10267C00184B5A681749BB6913434B6006E0154B5E
:10268C005A68BB69DB43134913404B603B685B687A
:10269C0003F48033002B1FD00E4B1A680D49BB6915
:1026AC0013430B601FE000BF00003210000031101C
:1026BC000000221000002110000012100000111068
:1026CC00001002400000014000080140000C0140D5
:1026DC0000100140000401400B4B1A68BB69DB433E
:1026EC00094913400B607B6A01337B623B681A68B3
:1026FC007B6A22FA03F3002B7FF496AE00BF00BF77
:10270C002C37BD4680BC70470004014080B483B0B8
:10271C0000AF78600B467B8013467B707B78002B78
:10272C0003D07A887B681A6103E07B881A047B6883
:10273C001A6100BF0C37BD4680BC704780B485B0B1
:10274C0000AF78600B467B807B68DB68FB607A8827
:10275C00FB6813401A04FB68D9437B880B401A436F
:10276C007B681A6100BF1437BD4680BC70470000FF
:10277C0080B586B000AF78607B68002B01D1012357
:10278C0072E27B681B6803F00103002B00F087806A
:10279C00924B5B6803F00C03042B0CD08F4B5B68E3
:1027AC0003F00C03082B12D18C4B5B6803F48033C1
:1027BC00B3F5803F0BD1894B1B6803F40033002B1E
:1027CC006CD07B685B68002B68D101234CE27B6882
:1027DC005B68B3F5803F06D1804B1B687F4A43F49E
:1027EC00803313602EE07B685B68002B0CD17B4B35
:1027FC001B687A4A23F480331360784B1B68774A42
:10280C0023F4802313601DE07B685B68B3F5A02F75
:10281C000CD1724B1B68714A43F4802313606F4BCD
:10282C001B686E4A43F4803313600BE06B4B1B68E0
:10283C006A4A23F480331360684B1B68674A23F49D
:10284C00802313607B685B68002B13D001F032FE91
:10285C00386108E001F02EFE02463B69D31A642B66
:10286C0001D9032300E25D4B1B6803F40033002BFA
:10287C00F0D014E001F01EFE386108E001F01AFE01
:10288C0002463B69D31A642B01D90323ECE1534B69
:10289C001B6803F40033002BF0D100E000BF7B6811
:1028AC001B6803F00203002B63D04C4B5B6803F0F6
:1028BC000C03002B0BD0494B5B6803F00C03082B6B
:1028CC001CD1464B5B6803F48033002B16D1434B71
:1028DC001B6803F00203002B05D07B681B69012BDE
:1028EC0001D00123C0E13D4B1B6823F0F8027B684B
:1028FC005B69DB00394913430B603AE07B681B6969
:10290C00002B20D0364B01221A6001F0D3FD386128
:10291C0008E001F0CFFD02463B69D31A022B01D926
:10292C000323A1E12D4B1B6803F00203002BF0D015
:10293C002A4B1B6823F0F8027B685B69DB00274994
:10294C0013430B6015E0264B00221A6001F0B2FD18
:10295C00386108E001F0AEFD02463B69D31A022B48
:10296C0001D9032380E11D4B1B6803F00203002BEC
:10297C00F0D17B681B6803F00803002B3AD07B680E
:10298C009B69002B19D0174B01221A6001F092FDA4
:10299C00386108E001F08EFD02463B69D31A022B28
:1029AC0001D9032360E10D4B5B6A03F00203002B9A
:1029BC00F0D0012000F0CEFA1CE00A4B00221A6085
:1029CC0001F078FD38610FE001F074FD02463B69BF
:1029DC00D31A022B08D9032346E100BF0010024092
:1029EC000000424280044242924B5B6A03F00203B5
:1029FC00002BE9D17B681B6803F00403002B00F06B
:102A0C00A6800023FB758B4BDB6903F08053002BF6
:102A1C000DD1884BDB69874A43F08053D361854BDA
:102A2C00DB6903F08053BB60BB680123FB75824BF1
:102A3C001B6803F48073002B18D17F4B1B687E4AF4
:102A4C0043F48073136001F035FD386108E001F048
:102A5C0031FD02463B69D31A642B01D9032303E1F0
:102A6C00754B1B6803F48073002BF0D07B68DB681C
:102A7C00012B06D16F4B1B6A6E4A43F001031362A4
:102A8C002DE07B68DB68002B0CD16A4B1B6A694A12
:102A9C0023F001031362674B1B6A664A23F004039D
:102AAC0013621CE07B68DB68052B0CD1614B1B6A45
:102ABC00604A43F0040313625E4B1B6A5D4A43F0A9
:102ACC00010313620BE05B4B1B6A5A4A23F00103B0
:102ADC001362584B1B6A574A23F0040313627B683A
:102AEC00DB68002B15D001F0E5FC38610AE001F041
:102AFC00E1FC02463B69D31A41F28832934201D978
:102B0C000323B1E04B4B1B6A03F00203002BEED006
:102B1C0014E001F0CFFC38610AE001F0CBFC024676
:102B2C003B69D31A41F28832934201D903239BE0CB
:102B3C00404B1B6A03F00203002BEED1FB7D012BF3
:102B4C0005D13C4BDB693B4A23F08053D3617B6856
:102B5C00DB69002B00F08780364B5B6803F00C03BD
:102B6C00082B61D07B68DB69022B46D1334B0022EA
:102B7C001A6001F09FFC386108E001F09BFC0246F2
:102B8C003B69D31A022B01D903236DE0294B1B6837
:102B9C0003F00073002BF0D17B681B6AB3F5803F08
:102BAC0008D1244B5B6823F400327B689B68214975
:102BBC0013434B601F4B5B6823F474127B68196AD8
:102BCC007B685B6A0B431B4913434B601B4B012215
:102BDC001A6001F06FFC386108E001F06BFC0246F2
:102BEC003B69D31A022B01D903233DE0114B1B681F
:102BFC0003F00073002BF0D035E0104B00221A606C
:102C0C0001F058FC386108E001F054FC02463B69C5
:102C1C00D31A022B01D9032326E0064B1B6803F0C1
:102C2C000073002BF0D11EE07B68DB69012B07D110
:102C3C00012319E000100240007000406000424285
:102C4C000B4B5B68FB60FB6803F480327B681B6A90
:102C5C009A4206D1FB6803F470127B685B6A9A4255
:102C6C0001D0012300E0002318461837BD4680BD73
:102C7C000010024080B584B000AF786039607B688A
:102C8C00002B01D10123D0E06A4B1B6803F0070332
:102C9C003A689A4210D9674B1B6823F007026549C2
:102CAC003B6813430B60634B1B6803F007033A68E4
:102CBC009A4201D00123B8E07B681B6803F0020341
:102CCC00002B20D07B681B6803F00403002B05D07D
:102CDC00594B5B68584A43F4E06353607B681B684C
:102CEC0003F00803002B05D0534B5B68524A43F4A6
:102CFC0060535360504B5B6823F0F0027B689B6819
:102D0C004D4913434B607B681B6803F00103002B98
:102D1C0040D07B685B68012B07D1474B1B6803F4E1
:102D2C000033002B15D101237FE07B685B68022BFD
:102D3C0007D1414B1B6803F00073002B09D1012311
:102D4C0073E03D4B1B6803F00203002B01D1012300
:102D5C006BE0394B5B6823F003027B685B68364998
:102D6C0013434B6001F0A6FBF8600AE001F0A2FBF4
:102D7C000246FB68D31A41F28832934201D90323ED
:102D8C0053E02D4B5B6803F00C027B685B689B0087
:102D9C009A42EBD1274B1B6803F007033A689A421F
:102DAC0010D2244B1B6823F0070222493B681343C3
:102DBC000B60204B1B6803F007033A689A4201D062
:102DCC00012332E07B681B6803F00403002B08D05E
:102DDC00194B5B6823F4E0627B68DB68164913438C
:102DEC004B607B681B6803F00803002B09D0124B67
:102DFC005B6823F460527B681B69DB000E4913434C
:102E0C004B6000F021F802460B4B5B681B0903F08A
:102E1C000F030A49CB5C22FA03F3094A1360094BEE
:102E2C001B68184601F004FB002318461037BD46FA
:102E3C0080BD00BF00200240001002400461000869
:102E4C00040000200800002080B487B000AF0023ED
:102E5C00FB600023BB6000237B6100237B600023AD
:102E6C003B611E4B5B68FB60FB6803F00C03042B9F
:102E7C0002D0082B03D027E0194B3B6127E0FB68FD
:102E8C009B0C03F00F03174AD35C7B60FB6803F4C5
:102E9C008033002B10D0114B5B685B0C03F00103EB
:102EAC00114AD35CBB607B680D4A03FB02F2BB6822
:102EBC00B2FBF3F37B6104E07B680C4A02FB03F387
:102ECC007B617B693B6102E0054B3B6100BF3B6969
:102EDC0018461C37BD4680BC704700BF001002402E
:102EEC0000127A001C6100082C61000800093D00EA
:102EFC0080B400AF024B1B681846BD4680BC7047BF
:102F0C000400002080B500AFFFF7F2FF0246054B2E
:102F1C005B681B0A03F007030349CB5C22FA03F33B
:102F2C00184680BD001002401461000880B500AF47
:102F3C00FFF7DEFF0246054B5B68DB0A03F0070375
:102F4C000349CB5C22FA03F3184680BD0010024003
:102F5C001461000880B485B000AF78600A4B1B6820
:102F6C000A4AA2FB03235B0A7A6802FB03F3FB60A9
:102F7C0000BFFB685A1EFA60002BF9D100BF00BFDE
:102F8C001437BD4680BC704704000020D34D62103E
:102F9C0080B485B000AF786039607B6893F83C30C2
:102FAC00012B01D1022341E07B68012283F83C20F4
:102FBC007B68022283F83D207B681B685B68FB60A2
:102FCC007B681B689B68BB60FB6823F07003FB602D
:102FDC003B681B68FA681343FB607B681B68FA68E4
:102FEC005A607B681B68144A934209D07B681B6843
:102FFC00B3F1804F04D07B681B68104A93420CD10C
:10300C00BB6823F08003BB603B685B68BA68134302
:10301C00BB607B681B68BA689A607B68012283F886
:10302C003D207B68002283F83C200023184614378F
:10303C00BD4680BC704700BF002C0140000400401E
:10304C0080B483B000AF786000BF0C37BD4680BC45
:10305C00704780B483B000AF786000BF0C37BD46BA
:10306C0080BC704780B582B000AF78607B68002B65
:10307C0001D1012341E07B6893F83D30DBB2002B9A
:10308C0006D17B68002283F83C207868FEF70EFDA1
:10309C007B68022283F83D207B681A687B680433C6
:1030AC001946104600F09CFA7B68012283F84620F2
:1030BC007B68012283F83E207B68012283F83F2045
:1030CC007B68012283F840207B68012283F8412031
:1030DC007B68012283F842207B68012283F843201D
:1030EC007B68012283F844207B68012283F8452009
:1030FC007B68012283F83D20002318460837BD4623
:10310C0080BD000080B485B000AF78607B6893F818
:10311C003D30DBB2012B01D0012335E07B6802226C
:10312C0083F83D207B681B68DA687B681B6842F07B
:10313C000102DA607B681B68164A934209D07B68EF
:10314C001B68B3F1804F04D07B681B68124A934212
:10315C0011D17B681B689B6803F00703FB60FB685D
:10316C00062B10D07B681B681A687B681B6842F0C2
:10317C0001021A6007E07B681B681A687B681B6891
:10318C0042F001021A60002318461437BD4680BC79
:10319C00704700BF002C01400004004080B483B095
:1031AC0000AF78607B681B68DA687B681B6822F06C
:1031BC000102DA607B681B681A6A41F21113134032
:1031CC00002B0FD17B681B681A6A40F244431340F2
:1031DC00002B07D17B681B681A687B681B6822F080
:1031EC0001021A607B68012283F83D2000231846F7
:1031FC000C37BD4680BC704780B582B000AF78609C
:10320C007B681B681B6903F00203022B22D17B68CD
:10321C001B68DB6803F00203022B1BD17B681B6865
:10322C006FF002021A617B6801221A777B681B68B7
:10323C009B6903F00303002B03D0786800F0B4F90A
:10324C0005E0786800F0A7F9786800F0B6F97B68BB
:10325C0000221A777B681B681B6903F00403042B9C
:10326C0022D17B681B68DB6803F00403042B1BD1A1
:10327C007B681B686FF004021A617B6802221A7764
:10328C007B681B689B6903F44073002B03D0786840
:10329C0000F08AF905E0786800F07DF9786800F0B4
:1032AC008CF97B6800221A777B681B681B6903F01A
:1032BC000803082B22D17B681B68DB6803F008032A
:1032CC00082B1BD17B681B686FF008021A617B68A6
:1032DC0004221A777B681B68DB6903F00303002B5D
:1032EC0003D0786800F060F905E0786800F053F9D5
:1032FC00786800F062F97B6800221A777B681B689B
:10330C001B6903F01003102B22D17B681B68DB6850
:10331C0003F01003102B1BD17B681B686FF010029D
:10332C001A617B6808221A777B681B68DB6903F4D7
:10333C004073002B03D0786800F036F905E078680C
:10334C0000F029F9786800F038F97B6800221A77C8
:10335C007B681B681B6903F00103012B0ED17B6892
:10336C001B68DB6803F00103012B07D17B681B682A
:10337C006FF001021A617868FDF7D6FB7B681B6859
:10338C001B6903F08003802B0ED17B681B68DB6804
:10339C0003F08003802B07D17B681B686FF08002E1
:1033AC001A617868FFF755FE7B681B681B6903F090
:1033BC004003402B0ED17B681B68DB6803F0400395
:1033CC00402B07D17B681B686FF040021A6178684C
:1033DC0000F0FCF87B681B681B6903F02003202BB2
:1033EC000ED17B681B68DB6803F02003202B07D110
:1033FC007B681B686FF020021A617868FFF720FE6B
:10340C0000BF0837BD4680BD80B584B000AF786082
:10341C0039600023FB737B6893F83C30012B01D19E
:10342C000223B4E07B68012283F83C207B680222F3
:10343C0083F83D207B681B689B68BB60BB6823F0EE
:10344C007703BB60BB6823F47F43BB607B681B685E
:10345C00BA689A603B681B68B3F5005F3ED0B3F561
:10346C00005F00F28780B3F5805F00F08680B3F5D3
:10347C00805F7FD8702B1AD0702B7BD8602B50D0EC
:10348C00602B77D8502B3CD0502B73D8402B58D076
:10349C00402B6FD8302B64D0302B6BD8202B60D0C6
:1034AC00202B67D8002B5CD0102B5AD062E07B68A5
:1034BC0018683B6899683B685A683B68DB6800F0A1
:1034CC005EF97B681B689B68BB60BB6843F0770345
:1034DC00BB607B681B68BA689A604FE07B681868B1
:1034EC003B6899683B685A683B68DB6800F047F9B1
:1034FC007B681B689A687B681B6842F480429A6000
:10350C003CE07B6818683B6859683B68DB681A4686
:10351C0000F0BEF87B681B685021184600F015F9C6
:10352C002CE07B6818683B6859683B68DB681A4676
:10353C0000F0DCF87B681B686021184600F005F988
:10354C001CE07B6818683B6859683B68DB681A4666
:10355C0000F09EF87B681B684021184600F0F5F8D7
:10356C000CE07B681A683B681B681946104600F033
:10357C00ECF803E00123FB7300E000BF7B68012241
:10358C0083F83D207B68002283F83C20FB7B1846A7
:10359C001037BD4680BD80B483B000AF786000BFEB
:1035AC000C37BD4680BC704780B483B000AF7860E8
:1035BC0000BF0C37BD4680BC704780B483B000AFF1
:1035CC00786000BF0C37BD4680BC704780B483B0B8
:1035DC0000AF786000BF0C37BD4680BC7047000060
:1035EC0080B485B000AF786039607B681B68FB6085
:1035FC007B68254A934207D07B68B3F1804F03D098
:10360C007B68224A934208D1FB6823F07003FB606D
:10361C003B685B68FA681343FB607B681A4A934209
:10362C0007D07B68B3F1804F03D07B68174A934275
:10363C0008D1FB6823F44073FB603B68DB68FA68D5
:10364C001343FB60FB6823F080023B685B69134308
:10365C00FB607B68FA681A603B689A687B68DA6280
:10366C003B681A687B689A627B68074A934203D16D
:10367C003B681A697B681A637B6801225A6100BF38
:10368C001437BD4680BC7047002C0140000400403C
:10369C0080B487B000AFF860B9607A60FB681B6AD1
:1036AC007B61FB681B6A23F00102FB681A62FB68F2
:1036BC009B693B613B6923F0F0033B617B681B0119
:1036CC003A6913433B617B6923F00A037B617A6996
:1036DC00BB6813437B61FB683A699A61FB687A6942
:1036EC001A6200BF1C37BD4680BC704780B487B0DF
:1036FC0000AFF860B9607A60FB681B6A7B61FB689D
:10370C001B6A23F01002FB681A62FB689B693B6121
:10371C003B6923F470433B617B681B033A69134399
:10372C003B617B6923F0A0037B61BB681B017A6959
:10373C0013437B61FB683A699A61FB687A691A6288
:10374C0000BF1C37BD4680BC704780B485B000AF4D
:10375C00786039607B689B68FB60FB6823F07003C2
:10376C00FB603A68FB68134343F00703FB607B681C
:10377C00FA689A6000BF1437BD4680BC704780B4AD
:10378C0087B000AFF860B9607A603B60FB689B68FB
:10379C007B617B6923F47F437B613B681A027B6806
:1037AC001A43BB6813437A6913437B61FB687A69DC
:1037BC009A6000BF1C37BD4680BC704780B582B094
:1037CC0000AF78607B68002B01D1012342E07B685D
:1037DC0093F84130DBB2002B06D17B68002283F8D2
:1037EC0040207868FEF788F97B68242283F8412012
:1037FC007B681B68DA687B681B6822F40052DA600D
:10380C00786800F071FD7B681B681A697B681B681F
:10381C0022F490421A617B681B685A697B681B68AA
:10382C0022F02A025A617B681B68DA687B681B6885
:10383C0042F40052DA607B6800225A647B682022D2
:10384C0083F841207B68202283F842207B68002289
:10385C005A63002318460837BD4680BD80B58AB030
:10386C0002AFF860B9603B601346FB8000237B61BC
:10387C00FB6893F84130DBB2202B6DD1BB68002B79
:10388C0002D0FB88002B01D1012366E0FB680022EB
:10389C005A64FB68212283F8412000F00BFE78610A
:1038AC00FB68FA889A84FB68FA88DA84FB689B6860
:1038BC00B3F5805F08D1FB681B69002B04D1002392
:1038CC00FB61BB68BB6103E0BB68FB610023BB61B0
:1038DC002AE03B6800937B6900228021F86800F0A5
:1038EC00F9FA0346002B01D0032336E0FB69002BC9
:1038FC000BD1BB691B881A46FB681B68C2F3080214
:10390C005A60BB690233BB6107E0FB691A78FB683C
:10391C001B685A60FB690133FB61FB68DB8C9BB253
:10392C00013B9AB2FB68DA84FB68DB8C9BB2002B00
:10393C00CFD13B6800937B6900224021F86800F0EE
:10394C00C9FA0346002B01D0032306E0FB682022B2
:10395C0083F84120002300E0022318462037BD469F
:10396C0080BD000080B5BAB000AF78607B681B6882
:10397C001B68C7F8E4307B681B68DB68C7F8E0306D
:10398C007B681B685B69C7F8DC300023C7F8D8304C
:10399C000023C7F8D430D7F8E43003F00F03C7F88E
:1039AC00D830D7F8D830002B0FD1D7F8E43003F04B
:1039BC002003002B09D0D7F8E03003F02003002BB4
:1039CC0003D0786800F0D1FB5BE2D7F8D830002B3D
:1039DC0000F0DE80D7F8DC3003F00103002B06D1B9
:1039EC00D7F8E03003F49073002B00F0D180D7F8B7
:1039FC00E43003F00103002B0BD0D7F8E03003F4D4
:103A0C008073002B05D07B685B6C43F001027B68F4
:103A1C005A64D7F8E43003F00403002B0BD0D7F82A
:103A2C00DC3003F00103002B05D07B685B6C43F0AA
:103A3C0002027B685A64D7F8E43003F00203002BCF
:103A4C000BD0D7F8DC3003F00103002B05D07B68DA
:103A5C005B6C43F004027B685A64D7F8E43003F0E3
:103A6C000803002B11D0D7F8E03003F02003002B13
:103A7C0005D1D7F8DC3003F00103002B05D07B68AF
:103A8C005B6C43F008027B685A647B685B6C002BB0
:103A9C0000F0F281D7F8E43003F02003002B08D0BB
:103AAC00D7F8E03003F02003002B02D0786800F048
:103ABC005CFB7B681B685B6903F04003002B14BF45
:103ACC0001230023DBB2C7F8D4307B685B6C03F0B6
:103ADC000803002B03D1D7F8D430002B4FD07868D3
:103AEC0000F066FA7B681B685B6903F04003002BEF
:103AFC0041D07B681B681433C7F89C30D7F89C30D6
:103B0C0053E8003FC7F89830D7F8983023F04003BB
:103B1C00C7F8D0307B681B681433D7F8D020C7F8AF
:103B2C00A820C7F8A430D7F8A410D7F8A82041E8EB
:103B3C000023C7F8A030D7F8A030002BD9D17B6870
:103B4C00DB6B002B13D07B68DB6B7E4A5A637B6884
:103B5C00DB6B1846FEF7E6FB0346002B16D07B68A2
:103B6C00DB6B5B6B7A68D26B104698470EE078681B
:103B7C0000F09CF90AE0786800F098F906E07868A3
:103B8C0000F094F97B6800225A6475E100BF73E180
:103B9C007B681B6B012B40F04F81D7F8E43003F0AE
:103BAC001003002B00F04881D7F8E03003F010032D
:103BBC00002B00F041810023BB607B681B681B68F5
:103BCC00BB607B681B685B68BB60BB687B681B6801
:103BDC005B6903F04003002B00F0B6807B68DB6B65
:103BEC001B685B68A7F8BE30B7F8BE30002B00F03E
:103BFC0045817B689B8DB7F8BE209A4280F03E8150
:103C0C007B68B7F8BE20DA857B68DB6B9B69202B61
:103C1C0000F088807B681B680C33C7F88830D7F8B5
:103C2C00883053E8003FC7F88430D7F8843023F449
:103C3C008073C7F8B8307B681B680C33D7F8B82092
:103C4C00C7F89420C7F89030D7F89010D7F8942084
:103C5C0041E80023C7F88C30D7F88C30002BD9D131
:103C6C007B681B6814337B677B6F53E8003F3B67B3
:103C7C003B6F23F00103C7F8B4307B681B68143327
:103C8C00D7F8B420C7F88020FB67F96FD7F88020ED
:103C9C0041E80023BB67BB6F002BE1D17B681B683D
:103CAC0014333B663B6E53E8003FFB65FB6D23F022
:103CBC004003C7F8B0307B681B681433D7F8B020CA
:103CCC00FA66BB66B96EFA6E41E800237B667B6EC2
:103CDC00002BE3D17B68202283F842207B680022F2
:103CEC001A637B681B680C33FB64FB6C53E8003F66
:103CFC00BB64BB6C23F01003C7F8AC307B681B684B
:103D0C000C33D7F8AC20BA657B65796DBA6D41E898
:103D1C0000233B653B6D002BE3D17B68DB6B1846C6
:103D2C00FEF7C5FA7B6802225A637B689A8D7B6822
:103D3C00DB8D9BB2D31A9BB21946786800F0BFF8A2
:103D4C009CE000BF814000087B689A8D7B68DB8D0E
:103D5C009BB2D31AA7F8CE307B68DB8D9BB2002BBD
:103D6C0000F08E80B7F8CE30002B00F089807B6895
:103D7C001B680C33BB63BB6B53E8003F7B637B6BF3
:103D8C0023F49073C7F8C8307B681B680C33D7F8E2
:103D9C00C8207A643B64396C7A6C41E80023FB637D
:103DAC00FB6B002BE3D17B681B6814337B627B6A53
:103DBC0053E8003F3B623B6A23F00103C7F8C43071
:103DCC007B681B681433D7F8C4203A63FB62F96A2A
:103DDC003A6B41E80023BB62BB6A002BE3D17B68E2
:103DEC00202283F842207B6800221A637B681B68C0
:103DFC000C333B613B6953E8003FFB60FB6823F0ED
:103E0C001003C7F8C0307B681B680C33D7F8C02090
:103E1C00FA61BB61B969FA6941E800237B617B698E
:103E2C00002BE3D17B6802225A63B7F8CE301946D7
:103E3C00786800F044F823E0D7F8E43003F080030E
:103E4C00002B09D0D7F8E03003F08003002B03D00F
:103E5C00786800F023F914E0D7F8E43003F040035D
:103E6C00002B0ED0D7F8E03003F04003002B08D025
:103E7C00786800F062F904E000BF02E000BF00E0E7
:103E8C0000BFE837BD4680BD80B483B000AF78601A
:103E9C0000BF0C37BD4680BC704780B483B000AF08
:103EAC00786000BF0C37BD4680BC704780B483B0CF
:103EBC0000AF786000BF0C37BD4680BC704780B443
:103ECC0083B000AF78600B467B8000BF0C37BD46DB
:103EDC0080BC704780B590B000AFF860B9603B60B3
:103EEC001346FB7150E0BB6CB3F1FF3F4CD0BB6C85
:103EFC00002B07D000F0DEFA02463B68D31ABA6CEE
:103F0C009A4241D2FB681B680C33BB62BB6A53E814
:103F1C00003F7B627B6A23F4D073FB63FB681B68F6
:103F2C000C33FA6B7A633B63396B7A6B41E8002391
:103F3C00FB62FB6A002BE5D1FB681B6814337B61C9
:103F4C007B6953E8003F3B613B6923F00103BB6392
:103F5C00FB681B681433BA6B3A62FB61F9693A6A05
:103F6C0041E80023BB61BB69002BE5D1FB68202233
:103F7C0083F84120FB68202283F84220FB68002252
:103F8C0083F8402003230FE0FB681B681A68BB68AA
:103F9C001340BA689A420CBF01230023DBB21A46C5
:103FAC00FB799A429FD0002318464037BD4680BD0E
:103FBC0080B495B000AF78607B681B680C337B6372
:103FCC007B6B53E8003F3B633B6B23F49073FB64C8
:103FDC007B681B680C33FA6C3A64FB63F96B3A6CC4
:103FEC0041E80023BB63BB6B002BE5D17B681B68EE
:103FFC0014333B623B6A53E8003FFB61FB6923F0DF
:10400C000103BB647B681B681433BA6CFA62BB6235
:10401C00B96AFA6A41E800237B627B6A002BE5D11E
:10402C007B681B6B012B19D17B681B680C33FB6005
:10403C00FB6853E8003FBB60BB6823F010037B6454
:10404C007B681B680C337A6CBA617B617969BA69DD
:10405C0041E800233B613B69002BE5D17B682022C2
:10406C0083F842207B6800221A6300BF5437BD4698
:10407C0080BC704780B584B000AF78607B685B6AA9
:10408C00FB60FB680022DA85FB680022DA84F868A2
:10409C00FFF70CFF00BF1037BD4680BD80B485B064
:1040AC0000AF78607B6893F84130DBB2212B3ED1B6
:1040BC007B689B68B3F5805F14D17B681B69002B10
:1040CC0010D17B681B6AFB60FB681B881A467B68F7
:1040DC001B68C2F308025A607B681B6A9A1C7B68D7
:1040EC001A6208E07B681B6A591C7A6811621A789C
:1040FC007B681B685A607B68DB8C9BB2013B9BB274
:10410C007A681946D184002B0FD17B681B68DA685A
:10411C007B681B6822F08002DA607B681B68DA68B7
:10412C007B681B6842F04002DA60002300E0022347
:10413C0018461437BD4680BC704780B582B000AFBE
:10414C0078607B681B68DA687B681B6822F0400229
:10415C00DA607B68202283F841207868FFF794FEB0
:10416C00002318460837BD4680BD80B58CB000AF23
:10417C0078607B6893F84230DBB2222B40F0AE8043
:10418C007B689B68B3F5805F17D17B681B69002B3C
:10419C0013D10023FB627B689B6ABB627B681B6844
:1041AC005B689BB2C3F308039AB2BB6A1A807B6844
:1041BC009B6A9A1C7B689A6226E07B689B6AFB620E
:1041CC000023BB627B689B68B3F5805F07D07B687C
:1041DC009B68002B0AD17B681B69002B06D17B687E
:1041EC001B685B68DAB2FB6A1A7008E07B681B68B4
:1041FC005B68DBB203F07F03DAB2FB6A1A707B6890
:10420C009B6A5A1C7B689A627B68DB8D9BB2013B74
:10421C009BB27A681946D185002B5DD17B681B68EF
:10422C00DA687B681B6822F02002DA607B681B6806
:10423C00DA687B681B6822F48072DA607B681B6822
:10424C005A697B681B6822F001025A617B68202244
:10425C0083F842207B6800225A637B681B6B012B1E
:10426C0035D17B6800221A637B681B680C337B6139
:10427C007B6953E8003F3B613B6923F010037B6291
:10428C007B681B680C337A6A3A62FB61F9693A6A9B
:10429C0041E80023BB61BB69002BE5D17B681B683F
:1042AC001B6803F01003102B0AD10023FB607B6802
:1042BC001B681B68FB607B681B685B68FB60FB68AA
:1042CC007B689B8D19467868FFF7F9FD02E07868EA
:1042DC00FFF7E3FD002302E0002300E00223184671
:1042EC003037BD4680BD000080B584B000AF78602B
:1042FC007B681B681B6923F440517B68DA687B6818
:10430C001B680A431A617B689A687B681B691A43AD
:10431C007B685B691343BB607B681B68DB6823F4B9
:10432C00B05323F00C037A681268B9680B43D3605E
:10433C007B681B685B6923F440717B689A697B68B6
:10434C001B680A435A617B681B682C4A934203D151
:10435C00FEF7ECFDF86002E0FEF7D4FDF860FA68B9
:10436C0013469B0013449A001A447B685B689B00BD
:10437C00B2FBF3F3224AA2FB03235B091901FA688F
:10438C0013469B0013449A001A447B685B689B009D
:10439C00B2FBF3F21A4BA3FB02035B09642000FB94
:1043AC0003F3D31A1B013233154AA2FB03235B0917
:1043BC0003F0F0031944FA6813469B0013449A0067
:1043CC001A447B685B689B00B2FBF3F20C4BA3FBBB
:1043DC0002035B09642000FB03F3D31A1B01323385
:1043EC00074AA2FB03235B0903F00F027B681B68DF
:1043FC000A449A6000BF1037BD4680BD00380140AA
:10440C001F85EB5180B500AF084B1B68074A43F082
:10441C00100313600320FDF705FF0F2000F008F8D0
:10442C00FDF712FB0023184680BD00BF00200240A0
:10443C0080B582B000AF7860124B1A68124B1B78B3
:10444C0019464FF47A73B3FBF1F3B2FBF3F318464E
:10445C00FDF721FF0346002B01D001230EE07B6802
:10446C000F2B0AD8002279684FF0FF30FDF7E5FEDC
:10447C00064A7B681360002300E0012318460837C6
:10448C00BD4680BD040000200C0000200800002068
:10449C0080B400AF054B1B781A46054B1B681344C0
:1044AC00034A136000BFBD4680BC70470C0000205F
:1044BC006404002080B400AF024B1B681846BD4654
:1044CC0080BC70476404002080B584B000AF786075
:1044DC00FFF7F0FFB8607B68FB60FB68B3F1FF3F50
:1044EC0005D00A4B1B781A46FB681344FB6000BFCF
:1044FC00FFF7E0FF0246BB68D31AFA689A42F7D876
:10450C0000BF00BF1037BD4680BD00BF0C000020AF
:10451C000A22002100F07AB8242B2DE9F0478646B8
:10452C00904601D8012B06D100F082FA16230360C5
:10453C000020BDE8F0870D4633482A4615F8014B9C
:10454C00065D16F00806F8D12D2C10D101262C781A
:10455C00951C33F0100215D1302C0DD12A7802F0B5
:10456C00DF02582A08D16C78023510230AE02B2C74
:10457C0004BF2C78951CECE7002BF6D1302C14BF23
:10458C000A230823002206F1004C0CF1FF3CBCFB73
:10459C00F3F9104603FB19CAA4F13007092F0FD801
:1045AC003C46A3421BDD571C07D0814514D301D1D7
:1045BC00A24511DB012200FB034015F8014BEBE790
:1045CC00A4F14107192F01D8373CEAE7A4F16107A0
:1045DC00192F04D8573CE4E74FF0FF32EDE7531C9A
:1045EC0008D122236046CEF80030B8F1000FA0D0DD
:1045FC00691E06E006B14042B8F1000F99D0002ABE
:10460C00F6D1C8F8001094E72F61000813460A464B
:10461C00014602480068FFF77FBF00BF1C00002066
:10462C00002310B50446C0E90033C0E904338360AD
:10463C0081814366C2818361194608225C3000F097
:10464C002AF90D4B246263620C4BA3620C4BE362A0
:10465C000C4B23630C4B9C4206D003F16802944232
:10466C0002D0D0339C4205D104F15800BDE8104073
:10467C0000F008BA10BD00BF1D4800083F480008F4
:10468C00774800089B48000868040020024A034948
:10469C00034800F069B800BF10000020A1530008C7
:1046AC002000002041680C4B10B59942044601D003
:1046BC0000F070FEA168094B994202D0204600F030
:1046CC0069FEE168064B994204D02046BDE81040D3
:1046DC0000F060BE10BD00BF68040020D0040020B4
:1046EC003805002010B50B4B0B4C0C4A20461A60B9
:1046FC0004210022FFF794FF04F168000122092134
:10470C00FFF78EFF04F1D0000222BDE81040122109
:10471C00FFF786BFA005002068040020994600081A
:10472C00014800F0B0B900BFA9050020014800F015
:10473C00ABB900BFA905002010B50446FFF7F0FF88
:10474C00236A1BB1BDE81040FFF7F0BF044B236296
:10475C00044B1B68002BF5D1FFF7C4FFF2E700BF39
:10476C00B1460008A00500202DE9F843074688460D
:10477C0014460026D4E90195B9F1010905D5246840
:10478C00002CF7D13046BDE8F883AB89012B07D953
:10479C00B5F90E30013303D029463846C0470643DD
:1047AC006835E9E70CB430B5184B0C1E1D689DB08C
:1047BC0008DA8B234FF0FF302B601DB0BDE8304082
:1047CC0002B070474FF40273ADF814304FF0000391
:1047DC001B930CBF234604F1FF33049307934FF64E
:1047EC00FF7302900690ADF81630284621AB209A44
:1047FC0002A9019300F0C2FA431CBCBF8B232B60AF
:10480C00002CDAD00022029B1A70D6E71C00002084
:10481C0010B50C46B1F90E1000F0E6F80028ABBF4D
:10482C00636DA3891B1823F48053ACBF6365A3810C
:10483C0010BD2DE9F0411F468B890546DB050C4662
:10484C00164605D502230022B1F90E1000F0BAF875
:10485C00A389324623F48053A38128463B46B4F9FE
:10486C000E10BDE8F04100F0D1B810B50C46B1F90E
:10487C000E1000F0A7F8431CA38915BF606523F444
:10488C00805343F48053A38118BFA38110BDB1F9A9
:10489C000E1000F087B803460244934200D17047D3
:1048AC0003F8011BF9E70346C9B2184613F8012BAC
:1048BC0012B18A42F9D17047002918BF0020704705
:1048CC00164B2DE9F0411F6805467C6C0E46ECB981
:1048DC00502000F041F90246786420B95B21104B5E
:1048EC00104800F0D3F8C0E90044C0E90244C0E924
:1048FC000444C0E90A44C0E90C44C0E90E44C0E9D0
:10490C001044C0E91244846104774462314628465D
:10491C007A6C0123BDE8F04100F006B81C000020C1
:10492C002F62000846620008F0B5044608B9146806
:10493C0044B10F46204614F8015B17F8016B1EB901
:10494C0065B91560002005E0B542F6D1002BF0D119
:10495C0014600370F0BD1C460CE01DB90E462746D2
:10496C0014F8013B16F8015BAB42F6D1002BF2D0E8
:10497C0000233B701460EDE70A7870B56AB970BD1E
:10498C009A4209D10C46054614F8013F002BF6D08B
:10499C0015F8016F9E42F7D001300378002BEFD150
:1049AC001846ECE738B50023054D044608462B6045
:1049BC00FDF738FA431C02D12B6803B1236038BDD4
:1049CC00A405002038B50446084611460022054DC2
:1049DC002A601A46FDF74AFA431C02D12B6803B130
:1049EC00236038BDA405002038B50446084611469E
:1049FC000022054D2A601A46FDF7DBF9431C02D153
:104A0C002B6803B1236038BDA405002038B50446DB
:104A1C00084611460022054D2A601A46FDF7E6F9B4
:104A2C00431C02D12B6803B1236038BDA4050020C0
:104A3C00014B1868704700BF1C00002070B50026A1
:104A4C000C4D0D4C641BA410A64209D100F0FAFFCA
:104A5C0000260A4D0A4C641BA410A64205D170BD59
:104A6C0055F8043B98470136EEE755F8043B984758
:104A7C000136F2E718630008186300081863000891
:104A8C001C63000870477047704700001FB5144640
:104A9C001A46094B05461B68D8684CB1074BCDE943
:104AAC00013400912B46064900F09CFC00F0F2FC0E
:104ABC00044B1C46F3E700BF1C000020A06200085A
:104ACC00AD620008DB62000838B50546002940D00D
:104ADC0051F8043C0C1F002BB8BFE41800F0E6F8AA
:104AEC001C4A136833B9636014602846BDE838402B
:104AFC0000F0E2B8A34208D9206821188B4201BF0C
:104B0C0019685B6809182160EDE71A465B680BB100
:104B1C00A342FAD911685018A0420BD12068014465
:104B2C00501883421160E0D118685B68084410602B
:104B3C005360DAE702D90C232B60D6E720682118E2
:104B4C008B4201BF19685B6809182160636054606F
:104B5C00CBE738BDB0050020024B0146186800F0C9
:104B6C0025B800BF1C00002070B50F4E0C463168F4
:104B7C00054611B900F062FC30602146284600F071
:104B8C005DFC431C03D14FF0FF34204670BDC41CA8
:104B9C0024F00304A042F8D0211A284600F04EFC61
:104BAC000130F2D1EFE700BFAC0500202DE9F8434E
:104BBC00CD1C25F0030508350C2D38BF0C25002D18
:104BCC00064601DBA94204D90C2333600020BDE862
:104BDC00F883DFF8D48000F069F8D8F800301C4670
:104BEC0044BB29463046FFF7BFFF431C044658D14F
:104BFC00D8F800402746002F43D1002C4BD0236817
:104C0C003946304604EB030900F018FC814542D1CB
:104C1C00216830466D1A2946FFF7A6FF01303AD0BD
:104C2C0023682B442360D8F800305A6862BBC8F85C
:104C3C0000700FE02268521B20D40B2A17D961197F
:104C4C00A342256018BF5960636808BFC8F80010FC
:104C5C0062514B60304600F02FF804F10B00231D1D
:104C6C0020F00700C21A1CBF1B1AA350AFE76268E2
:104C7C00A3420CBFC8F800205A60EBE723466468D7
:104C8C00AEE73C467F68B6E71A465B68A342FBD1A9
:104C9C0000235360DEE70C233046336000F00CF841
:104CAC0094E70560D6E700BFB00500200148FFF788
:104CBC00EABE00BFA80500200148FFF7E5BE00BF13
:104CCC00A80500202DE9F0471F468E688246BE429B
:104CDC000C4690460B682DD8B1F90C2012F4906F4D
:104CEC0026D06569096905EB4505A3EB010905EBC0
:104CFC00D5757B1C4B446D109D4238BF1D4653052A
:104D0C0027D52946FFF752FF064660B34A4621696C
:104D1C0000F0B2FBA38923F4906343F08003A381DA
:104D2C0026614E4426603E466561A5EB0905A560EB
:104D3C00BE4200D93E4632464146206800F064FB34
:104D4C000020A3689B1BA360236833442360BDE849
:104D5C00F0872A4600F0A5FB06460028E0D1504615
:104D6C002169FFF7B1FE0C23CAF80030A3894FF07C
:104D7C00FF3043F04003A381E9E700002DE9F04F39
:104D8C0098468B8907461B060D4614469DB010D5D8
:104D9C000B6973B94021FFF709FF2860286130B90E
:104DAC000C233B604FF0FF301DB0BDE8F08F40236B
:104DBC006B610023099320238DF8293030234FF0A9
:104DCC000109CDF80C80DFF898818DF82A30234644
:104DDC009A4613F8012B0AB1252AF9D1BAEB040B28
:104DEC000BD05B46224629463846FFF76BFF013055
:104DFC0000F0A780099A5A4409929AF80030002BC7
:104E0C0000F09F8000234FF0FF32CDE905230AF11B
:104E1C00010A049307938DF853301A9354460522D4
:104E2C0014F8011B4E4800F019FB049AD8B9D006AF
:104E3C0044BF20238DF85330110744BF2B238DF82A
:104E4C0053309AF800302A2B15D0544600204FF0DE
:104E5C000A0C079A214611F8013B303B092B4BD920
:104E6C00B0B1079214E0A0EB080309FA03F3134363
:104E7C00A2460493D2E7039B191D1B680391002BD8
:104E8C00BBBF5B4242F0020207930793B8BF049288
:104E9C0023782E2B0AD163782A2B32D1039B023430
:104EAC001A1D1B68039243EAE3730593DFF8B4A061
:104EBC0003225046217800F0D1FA38B14022049BED
:104ECC00A0EB0A00824013430134049314F8011B35
:104EDC00062225488DF8281000F0C0FA002836D09C
:104EEC00224B1BBB039B073323F0070308330393AD
:104EFC00099B334409936AE70C4601200CFB0232F0
:104F0C00A8E700234FF00A0C1946013405932046FC
:104F1C0010F8012B303A092A03D9002BC6D0059181
:104F2C00C4E7044601230CFB0121F0E703AB00931B
:104F3C002A4638460E4B04A9AFF30080421C0646A5
:104F4C00D6D1AB895B063FF52DAF09982CE703ABA7
:104F5C0000932A463846064B04A900F07DF8EDE78D
:104F6C00DC620008E2620008E66200080000000053
:104F7C00D14C00082DE9F047164698468A680B6913
:104F8C0007469342B8BF1346336091F843200C4652
:104F9C00DDF820900AB1013333602368990642BFD3
:104FAC00336802333360256815F0060506D104F129
:104FBC00190AE36832689B1AAB422BDC94F8433035
:104FCC002268003B18BF0123920630D44146384674
:104FDC0004F14302C847013023D02368226903F04F
:104FEC000603042B14BF002533684FF0000608BFDE
:104FFC00E56804F11A0408BFED1A54F8123C08BF16
:10500C0025EAE5759342C4BF9B1AED18B5421AD137
:10501C00002008E00123524641463846C84701307B
:10502C0003D14FF0FF30BDE8F0870135C1E73020E8
:10503C00E11881F843005A1C94F8451022440233BD
:10504C0082F84310C2E70123224641463846C8473E
:10505C000130E6D00136D9E72DE9FF470F7E9146A6
:10506C00782F80460C469A460C9E01F1430207D8D5
:10507C00622F0AD8002F00F0D180582F00F0B88092
:10508C0004F1420684F842703AE0A7F16303152B51
:10509C00F6D801A151F823F0FD5000081151000879
:1050AC008D5000088D5000088D5000088D50000860
:1050BC00115100088D5000088D5000088D500008CB
:1050CC008D5000080F5200083B510008C9510008D0
:1050DC008D5000088D500008315200088D5000088A
:1050EC003B5100088D5000088D500008D15100082C
:1050FC0033681A1D1B68326004F1420684F8423092
:10510C0001239CE033682068191D3160060601D527
:10511C001D6803E04506FBD5B3F90050002D03DAFA
:10512C002D236D4284F843300A23584811E021683E
:10513C003368080653F8045B02D4490648BFADB285
:10514C006F2F336014BF0A2308235048002184F8C2
:10515C0043106668002EA66005DB21682E4321F003
:10516C00040121604BD01646B5FBF3F103FB11573C
:10517C00C75D06F8017D2F46BB420D46F4D9082BBE
:10518C000BD12368DF0708D5236961689942DEBF1C
:10519C00302306F8013C06F1FF36921B22614B4688
:1051AC0021464046CDF800A003AAFFF7E3FE0130EC
:1051BC004AD14FF0FF3004B0BDE8F087236843F0CC
:1051CC00200323607827324884F8457023683168BF
:1051DC001F0651F8045B02D45F0648BFADB23160C4
:1051EC00D90744BF43F0200323601DB11023ADE762
:1051FC002648E9E7236823F020032360F6E71646E8
:10520C00BDE733682568181D616930602E061B6880
:10521C0001D5196002E06806FBD5198000231646FB
:10522C002361BCE7336800211A1D32601E68626876
:10523C00304600F013F908B1801B6060636823618D
:10524C00002384F84330AAE7324649464046236996
:10525C00D0470130ADD023689B0713D4E068039B83
:10526C009842B8BF1846A6E7012332464946404645
:10527C00D04701309DD00135E36803995B1AAB42EE
:10528C00F2DCEBE7002504F11906F5E7ED62000806
:10529C00FE620008B1F90C20F8B5160705460C465D
:1052AC0054D44B68002B02DC0B6C002B48DDE66AF7
:1052BC00002E45D0002312F480522F68216A2B60F7
:1052CC0030D0626DA389590705D56368D21A636B18
:1052DC000BB1236CD21A00232846E66A216AB04728
:1052EC00431CA38906D129681D292BD8284ACA40FA
:1052FC00D60727D5002262602269D904226004D522
:10530C00421C01D12B6803B96065616B2F60B9B188
:10531C0004F14403994202D02846FFF7D5FB002341
:10532C0063630DE001232846B0470246501CC9D1E7
:10533C002B68002BC6D01D2B01D0162B1DD12F6036
:10534C00002021E043F040031BB21AE00F69002F4C
:10535C00F6D0930718BF00230E6808BF4B69F61BE5
:10536C000F608B60002EEBDD33463A462846216AEF
:10537C00D4F828C0E047002807DCB4F90C3043F01F
:10538C0040034FF0FF30A381F8BD0744361AE9E71C
:10539C000100402038B50B6905460C4613B90025B1
:1053AC00284638BD18B1036A0BB9FFF7C5F9B4F933
:1053BC000C30002BF3D0626ED00704D4990502D4C4
:1053CC00A06DFFF760FB28462146FFF763FF636E75
:1053DC000546DA07E4D4A3899B05E1D4A06DFFF759
:1053EC0053FBDDE70EB403B5014603AB054853F898
:1053FC00042B0068019300F0A9F802B05DF804EBEF
:10540C0003B070471C000020884210B501EB020469
:10541C0002D98442234607D8431EA14208D011F872
:10542C00012B03F8012FF8E7014602448A4200D110
:10543C0010BD13F8014D02F8014DF7E738B5002304
:10544C00054D044608462B60FCF71CFD431C02D19D
:10545C002B6803B1236038BDA4050020034610B5AA
:10546C00C9B202449342184601D1002003E00478EB
:10547C0001338C42F6D110BD0A44914200F1FF3346
:10548C0000D1704710B511F8014B914203F8014F50
:10549C00F9D110BD062008B500F02CFA0120FCF75C
:1054AC007EFC2DE9F041074614460D4621B9114604
:1054BC00BDE8F041FFF77ABB2AB9FFF705FB25469B
:1054CC002846BDE8F08100F031FA8442064602D845
:1054DC00B4EB500FF4D821463846FFF767FB8046F3
:1054EC0008B94546ECE7B4422246294628BF324665
:1054FC00FFF7C2FF29463846FFF7E6FAF1E7936853
:10550C0010B4013B002B936007DA9469A34201DBD2
:10551C000A2902D110BC00F031B91368581C106074
:10552C001970084610BC7047F8B506460F4614466D
:10553C00D518AC4201D1002007E03A46304614F8A9
:10554C00011BFFF7DCFF431CF3D1F8BD2DE9F04F35
:10555C000D461446984606469DB018B1036A0BB921
:10556C00FFF7EAF86B6ED90705D4AB899A0502D41C
:10557C00A86DFFF788FAAB891B0701D52B699BB97E
:10558C002946304600F038F970B16B6EDC0704D553
:10559C004FF0FF301DB0BDE8F08FAB899805F7D404
:1055AC00A86DFFF771FAF3E70023099320238DF818
:1055BC00293030234FF00109CDF80C80DFF8A88199
:1055CC008DF82A3023469A4613F8012B0AB1252A66
:1055DC00F9D1BAEB040B0BD05B4622462946304678
:1055EC00FFF7A2FF013000F0A780099A5A440992F4
:1055FC009AF80030002B00F09F8000234FF0FF3210
:10560C00CDE905230AF1010A049307938DF8533071
:10561C001A935446052214F8011B5348FFF71EFF3A
:10562C00049AD8B9D10644BF20238DF85330130700
:10563C0044BF2B238DF853309AF800302A2B15D009
:10564C00544600204FF00A0C079A214611F8013BF2
:10565C00303B092B4BD9B0B1079214E0A0EB0803F7
:10566C0009FA03F31343A2460493D2E7039B191DD3
:10567C001B680391002BBBBF5B4242F002020793F5
:10568C000793B8BF049223782E2B0AD163782A2B68
:10569C0032D1039B02341A1D1B68039243EAE37355
:1056AC000593DFF8C8A0032250462178FFF7D6FEF9
:1056BC0038B14022049BA0EB0A0082401343013412
:1056CC00049314F8011B062229488DF82810FFF7C3
:1056DC00C5FE00283FD0274B1BBB039B073323F091
:1056EC00070308330393099B3B4409936AE70C4671
:1056FC0001200CFB0232A8E700234FF00A0C1946DC
:10570C0001340593204610F8012B303A092A03D9AD
:10571C00002BC6D00591C4E7044601230CFB0121E4
:10572C00F0E703AB00932A463046134B04A9AFF3C2
:10573C0000800746781CD6D16B6ED90705D4AB898F
:10574C009A0502D4A86DFFF79FF9AB895B063FF56C
:10575C001FAF09981EE703AB00932A463046064B51
:10576C0004A9FFF779FCE4E7DC620008E2620008B8
:10577C00E66200080000000035550008F8B50E463A
:10578C001446054618B1036A0BB9FEF7D5FFA36999
:10579C00A360A3891A0701D5236943B9214628467A
:1057AC0000F02AF818B14FF0FF373846F8BD2368DF
:1057BC002269F6B2981A63693746834205DC2146A2
:1057CC002846FFF7E7FD0028EDD1A368013BA36055
:1057DC0023685A1C22601E706269431C9A4204D0D2
:1057EC00A389DB07E1D50A2EDFD121462846FFF736
:1057FC00D1FD0028D9D0D6E738B5294B0546186815
:10580C000C4618B1036A0BB9FEF796FFB4F90C30CD
:10581C00190722D4DA0607D409222A6043F0400380
:10582C004FF0FF30A38133E0580712D5616B41B1C3
:10583C0004F14403994202D02846FFF745F90023AE
:10584C006363A38923F02403A3810023636023698A
:10585C002360A38943F00803A38123694BB9A3896F
:10586C0003F42073B3F5007F03D02146284600F0E3
:10587C008AF8B4F90C3013F001020AD00022A260AD
:10588C0062695242A261226942B913F08000C5D10B
:10589C0038BD990758BF6269A260F4E70020F7E7AA
:1058AC001C0000201F2938B505460C4604D91623C8
:1058BC0003604FF0FF3038BDC26B12B152F821308B
:1058CC004BB9284600F030F8224601462846BDE880
:1058DC00384000F017B8012B0AD0591C03D11623FD
:1058EC0003600120E7E70021204642F82410984786
:1058FC000020E0E7024B01461868FFF7D3BF00BF5A
:10590C001C00002038B50023064D044608461146FD
:10591C002B60FCF734FA431C02D12B6803B12360D3
:10592C0038BD00BFA4050020FCF722BA51F8043C96
:10593C00181F002BBCBF0B58C018704770B50C4615
:10594C00B1F90E10154600291E4696B00CDAA38943
:10595C00002113F0800F14BF40234FF4806300200C
:10596C0031602B6016B070BD6A4600F049F8002813
:10597C00EDDB019901F47041A1F5005359425941F5
:10598C004FF48063EBE78B89F7B59D0706460C4611
:10599C0007D504F14703236023610123636103B03E
:1059AC00F0BD6A4601ABFFF7C9FF009F05463946BB
:1059BC003046FFF7FBF848B9B4F90C309A05EED431
:1059CC0023F0030343F00203A381E2E7A389C4E9B4
:1059DC00040743F08003A381019B20605BB1304638
:1059EC00B4F90E1000F01EF828B1A38923F00303BC
:1059FC0043F00103A381A3891D43A581CFE70000D8
:105A0C0038B50023064D0446084611462B60FCF7BA
:105A1C0014FA431C02D12B6803B1236038BD00BFBC
:105A2C00A405002038B50023054D044608462B601C
:105A3C00FCF712FA431C02D12B6803B1236038BD6A
:105A4C00A4050020F8B500BFF8BC08BC9E46704702
:0C5A5C00F8B500BFF8BC08BC9E467047BF
:105A680025730D0A000000002B435041533A0000F3
:105A78000A2B43504153206E6F742072656164791C
:105A88002C206D757374206265202730270A00006A
:105A98002B435245473A0000302C31000A2B435221
:105AA8004547206E6F742072656164792C206D758E
:105AB80073742062652027302C31270A000000000B
:105AC8002B4353513A0000002B4353513A20000016
