:020000040800F2
:1000000000280020150C0008F90B0008FB0B000865
:10001000FD0B0008FF0B0008010C000800000000A9
:10002000000000000000000000000000030C0008B9
:10003000050C000800000000070C0008090C00086F
:100040005D0C00085D0C00085D0C00085D0C0008EC
:100050005D0C00085D0C00085D0C00085D0C0008DC
:100060005D0C00085D0C00085D0C00085D0C0008CC
:100070005D0C00085D0C00085D0C00085D0C0008BC
:100080005D0C00085D0C00085D0C00085D0C0008AC
:100090005D0C00085D0C00085D0C00085D0C00089C
:1000A0005D0C00085D0C00085D0C00085D0C00088C
:1000B0005D0C00085D0C0008000000005D0C0008ED
:1000C0005D0C000800000000000000005D0C00084E
:1000D000000000005D0C00085D0C0008000000003E
:1000E0005D0C00085D0C00085D0C000800000000BD
:1000F0000000000000000000000000000000000000
:0C01000000000000000000005FF808F1A3
:10010C0010B5054C237833B9044B13B10448AFF345
:10011C0000800123237010BD0C00002000000000A3
:10012C00B80C000808B5034B1BB103490348AFF3E7
:10013C00008008BD0000000010000020B80C000872
:10014C0010B504460E4B1A784FF47A73B3FBF2F3E6
:10015C000C4A1068B0FBF3F000F086F868B90F2C6D
:10016C0001D901200AE0002221464FF0FF3000F0B7
:10017C0043F8054B1C60002000E0012010BD00BFBF
:10018C0000000020080000200400002008B5074AE9
:10019C00136843F010031360032000F01BF80F20CA
:1001AC00FFF7CEFF00F000FD002008BD002002404C
:1001BC00034A1168034B1B780B441360704700BF54
:1001CC002800002000000020014B1868704700BF79
:1001DC0028000020074AD36823F4E0631B041B0C9F
:1001EC00000200F4E060034343F0BF6343F40033C8
:1001FC00D360704700ED00E000B5194BDB68C3F32A
:10020C000223C3F1070CBCF1040F28BF4FF0040C00
:10021C0003F1040EBEF1060F18D9033B4FF0FF3E5D
:10022C000EFA0CFC21EA0C0199400EFA03FE22EAAC
:10023C000E020A4300280BDB1201D2B200F160401F
:10024C0000F5614080F800235DF804FB0023E5E72E
:10025C0000F00F001201D2B2024B1A54F4E700BFA7
:10026C0000ED00E014ED00E00138B0F1807F0BD21E
:10027C004FF0E0235861054AF02182F8231000204A
:10028C00986107221A6170470120704700ED00E069
:10029C0070B582B00024A4468BE07F4DAB4210D0E9
:1002AC0007D97E4DAB420CD005F58035AB4208D05A
:1002BC0015E0A5F58015AB4203D005F57025AB42D2
:1002CC0009D18B68002B00F0BF80012B00F0B780A8
:1002DC004261082403E0A5F58015AB42F1D0BEF1D4
:1002EC00FF0F00F2B3800646BEF1FF0F00F2B080A4
:1002FC004FEA8C0233680F25954023EA050304FA74
:10030C0002F2134333604B6813F0805F4FD0644BA1
:10031C009A6942F001029A619B6903F0010301930F
:10032C00019B4FEA9C02951C5E4B53F825600CF028
:10033C000305AD000F23AB4026EA03065A4B984247
:10034C0000F08C8003F58063984200F0898003F5FF
:10035C008063984200F080800323AB403343023229
:10036C00504D45F822304B6813F4801F7AD04F4A19
:10037C00936843EA0E0393604B6813F4001F77D025
:10038C004A4AD36843EA0E03D3604B6813F4003F28
:10039C0074D0464A536843EA0E0353604B6813F417
:1003AC00803F71D0414A136843EA0E0313600CF18D
:1003BC00010C0B6833FA0CF26CD0012202FA0CF22D
:1003CC0003EA020E32EA0303F1D14B68122B3FF61B
:1003DC0064AF122B83D801A555F823F0CF02000887
:1003EC00350400083F04000851040008EB02000823
:1003FC00EB020008EB020008EB020008EB0200081D
:10040C00EB020008EB020008EB020008EB0200080C
:10041C00EB020008EB020008EB020008EB020008FC
:10042C003904000845040008CC6858E7CC6804344B
:10043C0055E7CC68083452E7CC680C344FE70261BE
:10044C0008244CE700244AE7042448E7061D4BE740
:10045C00ACF1080292004DE702237EE700237CE713
:10046C0001237AE7114A936823EA0E03936083E72A
:10047C000E4AD36823EA0E03D36086E70B4A53680F
:10048C0023EA0E03536089E7084A136823EA0E0334
:10049C0013608CE702B070BD000022100000311018
:1004AC00001002400000014000080140000401401F
:1004BC000AB10161704709040161704782B0084BB1
:1004CC001B68084AA2FB03235B0A00FB03F301939E
:1004DC0000BF019B5A1E0192002BF9D102B070474C
:1004EC0008000020D34D6210002800F0F18170B597
:1004FC0082B00446036813F0010F2CD0994B5B6853
:10050C0003F00C03042B1DD0964B5B6803F00C031B
:10051C00082B12D06368B3F5803F41D0002B55D126
:10052C0003F1804303F504331A6822F480321A6015
:10053C001A6822F480221A6037E08A4B5B6813F445
:10054C00803FE7D0874B1B6813F4003F03D06368F0
:10055C00002B00F0BF81236813F0020F75D0814B84
:10056C005B6813F00C0F5FD07E4B5B6803F00C03E1
:10057C00082B54D02369002B00F08A807A4B01227F
:10058C001A60FFF721FE0546764B1B6813F0020F2D
:10059C0075D1FFF719FE401B0228F5D903209EE107
:1005AC00704A136843F480331360636843B3FFF7F6
:1005BC000BFE05466B4B1B6813F4003FCBD1FFF7CA
:1005CC0003FE401B6428F5D9032088E1B3F5A02F66
:1005DC0009D0644B1A6822F480321A601A6822F42B
:1005EC0080221A60E1E703F18043A3F53C331A68DB
:1005FC0042F480221A601A6842F480321A60D4E7FE
:10060C00FFF7E2FD0546574B1B6813F4003FA2D0E1
:10061C00FFF7DAFD401B6428F5D903205FE1514B4D
:10062C005B6813F4803FA5D14E4B1B6813F0020F8F
:10063C0003D02369012B40F04F814A4A136823F001
:10064C00F803616943EAC1031360236813F0080FD0
:10065C0033D0A369002B5CD0434B0122C3F8802418
:10066C00FFF7B2FD05463F4B5B6A13F0020F21D139
:10067C00FFF7AAFD401B0228F5D903202FE1394AC8
:10068C00136823F0F803616943EAC1031360DCE7E4
:10069C00354B00221A60FFF797FD0546314B1B685E
:1006AC0013F0020FD1D0FFF78FFD401B0228F5D9B4
:1006BC00032014E10120FFF701FF236813F0040F5E
:1006CC0000F09680274BDB6913F0805F34D1254B0B
:1006DC00DA6942F08052DA61DB6903F080530193EE
:1006EC00019B0125214B1B6813F4807F26D0E36806
:1006FC00012B3DD0002B53D103F1804303F5043380
:10070C001A6A22F001021A621A6A22F004021A62B0
:10071C0033E0154B0022C3F88024FFF755FD054646
:10072C00104B5B6A13F0020FC7D0FFF74DFD401B57
:10073C000228F5D90320D2E00025D3E70B4A136831
:10074C0043F480731360FFF73FFD0646074B1B68AD
:10075C0013F4807FCBD1FFF737FD801B6428F5D9CC
:10076C000320BCE000100240000042420070004038
:10077C005F4A136A43F001031362E36833B3FFF774
:10078C0023FD06465A4B1B6A13F0020F2FD1FFF7BD
:10079C001BFD801B41F288339842F3D903209EE065
:1007AC00052B09D0524B1A6A22F001021A621A6AFE
:1007BC0022F004021A62E0E74D4B1A6A42F004027E
:1007CC001A621A6A42F001021A62D6E7FFF7FCFCC1
:1007DC000646474B1B6A13F0020F08D0FFF7F4FCD8
:1007EC00801B41F288339842F3D9032077E0E5B9B6
:1007FC00E369002B72D03E4A526802F00C02082AC0
:10080C0056D0022B17D03B4B00221A66FFF7DCFCAC
:10081C000446374B1B6813F0007F47D0FFF7D4FC1E
:10082C00001B0228F5D9032059E0314AD36923F083
:10083C008053D361DCE72F4B00221A66FFF7C4FC10
:10084C0005462B4B1B6813F0007F06D0FFF7BCFC52
:10085C00401B0228F5D9032041E0236AB3F5803F01
:10086C001AD023494B6823F47413226A606A02433A
:10087C0013434B601F4B01221A66FFF7A5FC04467D
:10088C001B4B1B6813F0007F0ED1FFF79DFC001B68
:10089C000228F5D9032022E0154A536823F40033CB
:1008AC00A1680B435360DCE7002018E0002016E041
:1008BC00012B16D00E4B5B6803F48031226A9142F7
:1008CC0011D103F47013626A93420ED1002006E03A
:1008DC0001207047012002E0012000E0002002B05E
:1008EC0070BD0120FBE70120F9E70120F7E700BF0D
:1008FC0000100240000042420F4B5B6803F00C02F8
:10090C00082A01D00D487047C3F383420C49885C18
:10091C0013F4803F0BD0084B5B68C3F34043094A88
:10092C00D35C064A02FB00F0B0FBF3F07047064BB9
:10093C0003FB00F0704700BF0010024000127A0069
:10094C00D00C0008E00C000800093D00002800F065
:10095C00A08070B50D460446524B1B6803F007038C
:10096C008B420BD24F4A136823F007030B431360DF
:10097C00136803F007038B4240F08D80236813F05B
:10098C00020F17D013F0040F04D0474A536843F4F6
:10099C00E0635360236813F0080F04D0424A536895
:1009AC0043F460535360404A536823F0F003A1684A
:1009BC000B435360236813F0010F31D06368012B94
:1009CC0020D0022B25D0384A126812F0020F64D0C6
:1009DC0035494A6822F0030213434B60FFF7F4FBDE
:1009EC000646314B5B6803F00C036268B3EB820F75
:1009FC0016D0FFF7E9FB801B41F288339842F0D9FF
:100A0C00032045E0284A126812F4003FE0D101208F
:100A1C003EE0254A126812F0007FD9D1012037E060
:100A2C00204B1B6803F00703AB420AD91D4A13681D
:100A3C0023F007032B431360136803F00703AB4247
:100A4C002DD1236813F0040F06D0174A536823F4F2
:100A5C00E063E1680B435360236813F0080F07D081
:100A6C00114A536823F46053216943EAC10353606C
:100A7C00FFF742FF0C4B5B68C3F303130B4AD35CC9
:100A8C00D8400B4B18600B4B1868FFF759FB002034
:100A9C0070BD012070470120FAE70120F8E7012022
:100AAC00F6E700BF0020024000100240E40C0008F2
:100ABC00080000200400002030B589B00024049404
:100ACC00059406940794184B9A6942F010029A61A7
:100ADC009A6902F010020192019A9A6942F020027E
:100AEC009A619A6902F020020292029A9A6942F083
:100AFC0004029A619B6903F004030393039B0B4D5F
:100B0C0022464FF400512846FFF7D2FC4FF4005315
:100B1C0004930123059306940223079304A9284602
:100B2C00FFF7B6FB09B030BD0010024000100140C9
:100B3C0072B6FEE700B591B02822002106A800F09D
:100B4C0088F80023019302930393049305930122E5
:100B5C0006924FF4803307930A9202220D920E9361
:100B6C004FF4E0130F9306A8FFF7BEFC80B90F23D8
:100B7C00019302210291002303934FF480620492AB
:100B8C00059301A8FFF7E2FE20B911B05DF804FB54
:100B9C00FFF7CEFFFFF7CCFF08B5FFF7F7FAFFF72B
:100BAC00C9FFFFF789FFFEE782B00E4B9A6942F04E
:100BBC0001029A619A6902F001020092009ADA69C4
:100BCC0042F08052DA61DB6903F080530193019BA0
:100BDC00054A536823F0E06343F00073536002B09E
:100BEC00704700BF0010024000000140FEE7FEE726
:100BFC00FEE7FEE7FEE770477047704708B5FFF762
:100C0C00D7FA08BD70470000FFF7FCFF0B480C49F2
:100C1C000C4A002302E0D458C4500433C4188C424C
:100C2C00F9D3094A094C002301E013600432A242B3
:100C3C00FBD300F017F8FFF7AFFF70470000002060
:100C4C000C000020FC0C00080C0000202C000020E4
:100C5C00FEE703460244934200D1704703F8011BA0
:100C6C00F9E7000070B500260C4D0D4C641BA41068
:100C7C00A64209D100F01AF800260A4D0A4C641B52
:100C8C00A410A64205D170BD55F8043B9847013617
:100C9C00EEE755F8043B98470136F2E7F40C0008F0
:100CAC00F40C0008F40C0008F80C0008F8B500BFB0
:100CBC00F8BC08BC9E467047F8B500BFF8BC08BC31
:040CCC009E46704789
:100CD00002030405060708090A0B0C0D0E0F10107D
:100CE00001020000000000000000000001020304F7
:040CF00006070809E2
:040CF40031010008C2
:040CF8000D010008E2
:0C0CFC0001000000100000000024F400C3
:0400000508000C15CE
:00000001FF
